{
  "address": "0xcb8cf140FC0a41517a28811fb0dCc2E7c4f9Cc3B",
  "abi": [
    {
      "inputs": [],
      "stateMutability": "nonpayable",
      "type": "constructor"
    },
    {
      "anonymous": false,
      "inputs": [
        {
          "indexed": false,
          "internalType": "address",
          "name": "previousAdmin",
          "type": "address"
        },
        {
          "indexed": false,
          "internalType": "address",
          "name": "newAdmin",
          "type": "address"
        }
      ],
      "name": "AdminChanged",
      "type": "event"
    },
    {
      "anonymous": false,
      "inputs": [
        {
          "indexed": true,
          "internalType": "address",
          "name": "owner",
          "type": "address"
        },
        {
          "indexed": true,
          "internalType": "address",
          "name": "approved",
          "type": "address"
        },
        {
          "indexed": true,
          "internalType": "uint256",
          "name": "tokenId",
          "type": "uint256"
        }
      ],
      "name": "Approval",
      "type": "event"
    },
    {
      "anonymous": false,
      "inputs": [
        {
          "indexed": true,
          "internalType": "address",
          "name": "owner",
          "type": "address"
        },
        {
          "indexed": true,
          "internalType": "address",
          "name": "operator",
          "type": "address"
        },
        {
          "indexed": false,
          "internalType": "bool",
          "name": "approved",
          "type": "bool"
        }
      ],
      "name": "ApprovalForAll",
      "type": "event"
    },
    {
      "anonymous": false,
      "inputs": [
        {
          "indexed": false,
          "internalType": "string",
          "name": "newBaseURI",
          "type": "string"
        }
      ],
      "name": "BaseURIUpdated",
      "type": "event"
    },
    {
      "anonymous": false,
      "inputs": [
        {
          "indexed": false,
          "internalType": "uint256",
          "name": "_fromTokenId",
          "type": "uint256"
        },
        {
          "indexed": false,
          "internalType": "uint256",
          "name": "_toTokenId",
          "type": "uint256"
        }
      ],
      "name": "BatchMetadataUpdate",
      "type": "event"
    },
    {
      "anonymous": false,
      "inputs": [
        {
          "indexed": true,
          "internalType": "address",
          "name": "beacon",
          "type": "address"
        }
      ],
      "name": "BeaconUpgraded",
      "type": "event"
    },
    {
      "anonymous": false,
      "inputs": [
        {
          "indexed": false,
          "internalType": "uint8",
          "name": "version",
          "type": "uint8"
        }
      ],
      "name": "Initialized",
      "type": "event"
    },
    {
      "anonymous": false,
      "inputs": [
        {
          "indexed": false,
          "internalType": "uint256",
          "name": "_tokenId",
          "type": "uint256"
        }
      ],
      "name": "MetadataUpdate",
      "type": "event"
    },
    {
      "anonymous": false,
      "inputs": [
        {
          "indexed": false,
          "internalType": "uint256",
          "name": "newFee",
          "type": "uint256"
        }
      ],
      "name": "MintFeeUpdated",
      "type": "event"
    },
    {
      "anonymous": false,
      "inputs": [
        {
          "indexed": true,
          "internalType": "address",
          "name": "to",
          "type": "address"
        },
        {
          "indexed": true,
          "internalType": "uint256",
          "name": "tokenId",
          "type": "uint256"
        },
        {
          "indexed": false,
          "internalType": "string",
          "name": "uri",
          "type": "string"
        }
      ],
      "name": "NFTMinted",
      "type": "event"
    },
    {
      "anonymous": false,
      "inputs": [
        {
          "indexed": true,
          "internalType": "address",
          "name": "previousOwner",
          "type": "address"
        },
        {
          "indexed": true,
          "internalType": "address",
          "name": "newOwner",
          "type": "address"
        }
      ],
      "name": "OwnershipTransferred",
      "type": "event"
    },
    {
      "anonymous": false,
      "inputs": [
        {
          "indexed": true,
          "internalType": "address",
          "name": "from",
          "type": "address"
        },
        {
          "indexed": true,
          "internalType": "address",
          "name": "to",
          "type": "address"
        },
        {
          "indexed": true,
          "internalType": "uint256",
          "name": "tokenId",
          "type": "uint256"
        }
      ],
      "name": "Transfer",
      "type": "event"
    },
    {
      "anonymous": false,
      "inputs": [
        {
          "indexed": true,
          "internalType": "address",
          "name": "implementation",
          "type": "address"
        }
      ],
      "name": "Upgraded",
      "type": "event"
    },
    {
      "inputs": [
        {
          "internalType": "address",
          "name": "to",
          "type": "address"
        },
        {
          "internalType": "uint256",
          "name": "tokenId",
          "type": "uint256"
        }
      ],
      "name": "approve",
      "outputs": [],
      "stateMutability": "nonpayable",
      "type": "function"
    },
    {
      "inputs": [
        {
          "internalType": "address",
          "name": "owner",
          "type": "address"
        }
      ],
      "name": "balanceOf",
      "outputs": [
        {
          "internalType": "uint256",
          "name": "",
          "type": "uint256"
        }
      ],
      "stateMutability": "view",
      "type": "function"
    },
    {
      "inputs": [
        {
          "internalType": "uint256",
          "name": "tokenId",
          "type": "uint256"
        }
      ],
      "name": "getApproved",
      "outputs": [
        {
          "internalType": "address",
          "name": "",
          "type": "address"
        }
      ],
      "stateMutability": "view",
      "type": "function"
    },
    {
      "inputs": [
        {
          "internalType": "string",
          "name": "name",
          "type": "string"
        },
        {
          "internalType": "string",
          "name": "symbol",
          "type": "string"
        },
        {
          "internalType": "string",
          "name": "baseURI",
          "type": "string"
        },
        {
          "internalType": "uint256",
          "name": "initialMintFee",
          "type": "uint256"
        },
        {
          "internalType": "address",
          "name": "initialOwner",
          "type": "address"
        }
      ],
      "name": "initialize",
      "outputs": [],
      "stateMutability": "nonpayable",
      "type": "function"
    },
    {
      "inputs": [
        {
          "internalType": "address",
          "name": "owner",
          "type": "address"
        },
        {
          "internalType": "address",
          "name": "operator",
          "type": "address"
        }
      ],
      "name": "isApprovedForAll",
      "outputs": [
        {
          "internalType": "bool",
          "name": "",
          "type": "bool"
        }
      ],
      "stateMutability": "view",
      "type": "function"
    },
    {
      "inputs": [
        {
          "internalType": "address",
          "name": "to",
          "type": "address"
        },
        {
          "internalType": "string",
          "name": "metadataURI",
          "type": "string"
        }
      ],
      "name": "mint",
      "outputs": [
        {
          "internalType": "uint256",
          "name": "",
          "type": "uint256"
        }
      ],
      "stateMutability": "payable",
      "type": "function"
    },
    {
      "inputs": [],
      "name": "mintFee",
      "outputs": [
        {
          "internalType": "uint256",
          "name": "",
          "type": "uint256"
        }
      ],
      "stateMutability": "view",
      "type": "function"
    },
    {
      "inputs": [],
      "name": "name",
      "outputs": [
        {
          "internalType": "string",
          "name": "",
          "type": "string"
        }
      ],
      "stateMutability": "view",
      "type": "function"
    },
    {
      "inputs": [],
      "name": "owner",
      "outputs": [
        {
          "internalType": "address",
          "name": "",
          "type": "address"
        }
      ],
      "stateMutability": "view",
      "type": "function"
    },
    {
      "inputs": [
        {
          "internalType": "uint256",
          "name": "tokenId",
          "type": "uint256"
        }
      ],
      "name": "ownerOf",
      "outputs": [
        {
          "internalType": "address",
          "name": "",
          "type": "address"
        }
      ],
      "stateMutability": "view",
      "type": "function"
    },
    {
      "inputs": [],
      "name": "proxiableUUID",
      "outputs": [
        {
          "internalType": "bytes32",
          "name": "",
          "type": "bytes32"
        }
      ],
      "stateMutability": "view",
      "type": "function"
    },
    {
      "inputs": [],
      "name": "renounceOwnership",
      "outputs": [],
      "stateMutability": "nonpayable",
      "type": "function"
    },
    {
      "inputs": [
        {
          "internalType": "uint256",
          "name": "tokenId",
          "type": "uint256"
        },
        {
          "internalType": "uint256",
          "name": "salePrice",
          "type": "uint256"
        }
      ],
      "name": "royaltyInfo",
      "outputs": [
        {
          "internalType": "address",
          "name": "",
          "type": "address"
        },
        {
          "internalType": "uint256",
          "name": "",
          "type": "uint256"
        }
      ],
      "stateMutability": "view",
      "type": "function"
    },
    {
      "inputs": [
        {
          "internalType": "address",
          "name": "from",
          "type": "address"
        },
        {
          "internalType": "address",
          "name": "to",
          "type": "address"
        },
        {
          "internalType": "uint256",
          "name": "tokenId",
          "type": "uint256"
        }
      ],
      "name": "safeTransferFrom",
      "outputs": [],
      "stateMutability": "nonpayable",
      "type": "function"
    },
    {
      "inputs": [
        {
          "internalType": "address",
          "name": "from",
          "type": "address"
        },
        {
          "internalType": "address",
          "name": "to",
          "type": "address"
        },
        {
          "internalType": "uint256",
          "name": "tokenId",
          "type": "uint256"
        },
        {
          "internalType": "bytes",
          "name": "data",
          "type": "bytes"
        }
      ],
      "name": "safeTransferFrom",
      "outputs": [],
      "stateMutability": "nonpayable",
      "type": "function"
    },
    {
      "inputs": [
        {
          "internalType": "address",
          "name": "operator",
          "type": "address"
        },
        {
          "internalType": "bool",
          "name": "approved",
          "type": "bool"
        }
      ],
      "name": "setApprovalForAll",
      "outputs": [],
      "stateMutability": "nonpayable",
      "type": "function"
    },
    {
      "inputs": [
        {
          "internalType": "string",
          "name": "newBaseURI",
          "type": "string"
        }
      ],
      "name": "setBaseURI",
      "outputs": [],
      "stateMutability": "nonpayable",
      "type": "function"
    },
    {
      "inputs": [
        {
          "internalType": "uint256",
          "name": "newFee",
          "type": "uint256"
        }
      ],
      "name": "setMintFee",
      "outputs": [],
      "stateMutability": "nonpayable",
      "type": "function"
    },
    {
      "inputs": [
        {
          "internalType": "bytes4",
          "name": "interfaceId",
          "type": "bytes4"
        }
      ],
      "name": "supportsInterface",
      "outputs": [
        {
          "internalType": "bool",
          "name": "",
          "type": "bool"
        }
      ],
      "stateMutability": "view",
      "type": "function"
    },
    {
      "inputs": [],
      "name": "symbol",
      "outputs": [
        {
          "internalType": "string",
          "name": "",
          "type": "string"
        }
      ],
      "stateMutability": "view",
      "type": "function"
    },
    {
      "inputs": [
        {
          "internalType": "uint256",
          "name": "tokenId",
          "type": "uint256"
        }
      ],
      "name": "tokenURI",
      "outputs": [
        {
          "internalType": "string",
          "name": "",
          "type": "string"
        }
      ],
      "stateMutability": "view",
      "type": "function"
    },
    {
      "inputs": [
        {
          "internalType": "address",
          "name": "from",
          "type": "address"
        },
        {
          "internalType": "address",
          "name": "to",
          "type": "address"
        },
        {
          "internalType": "uint256",
          "name": "tokenId",
          "type": "uint256"
        }
      ],
      "name": "transferFrom",
      "outputs": [],
      "stateMutability": "nonpayable",
      "type": "function"
    },
    {
      "inputs": [
        {
          "internalType": "address",
          "name": "newOwner",
          "type": "address"
        }
      ],
      "name": "transferOwnership",
      "outputs": [],
      "stateMutability": "nonpayable",
      "type": "function"
    },
    {
      "inputs": [
        {
          "internalType": "address",
          "name": "newImplementation",
          "type": "address"
        }
      ],
      "name": "upgradeTo",
      "outputs": [],
      "stateMutability": "nonpayable",
      "type": "function"
    },
    {
      "inputs": [
        {
          "internalType": "address",
          "name": "newImplementation",
          "type": "address"
        },
        {
          "internalType": "bytes",
          "name": "data",
          "type": "bytes"
        }
      ],
      "name": "upgradeToAndCall",
      "outputs": [],
      "stateMutability": "payable",
      "type": "function"
    },
    {
      "inputs": [],
      "name": "withdrawFees",
      "outputs": [],
      "stateMutability": "nonpayable",
      "type": "function"
    }
  ],
  "transactionHash": "0x08367bcc68e1ae8f9f87e68699349b53417efc3729ca6164ea32501759978faf",
  "args": [],
  "numDeployments": 1,
  "solcInputHash": "5f516deb6b531827eaeba30e4dd92f6b",
  "bytecode": "0x60a0604052306080523480156200001557600080fd5b506200002062000026565b620000e7565b600054610100900460ff1615620000935760405162461bcd60e51b815260206004820152602760248201527f496e697469616c697a61626c653a20636f6e747261637420697320696e697469604482015266616c697a696e6760c81b606482015260840160405180910390fd5b60005460ff90811614620000e5576000805460ff191660ff9081179091556040519081527f7f26b83ff96e1f2b6a682f133852f6798a09c465da95921460cefb38474024989060200160405180910390a15b565b6080516129776200011f6000396000818161092d0152818161096d01528181610b1d01528181610b5d0152610bec01526129776000f3fe6080604052600436106101815760003560e01c806355f804b3116100d1578063a22cb4651161008a578063d0def52111610064578063d0def52114610460578063e985e9c514610473578063eddd0d9c146104bc578063f2fde38b146104dc57600080fd5b8063a22cb46514610400578063b88d4fde14610420578063c87b56dd1461044057600080fd5b806355f804b3146103585780636352211e1461037857806370a0823114610398578063715018a6146103b85780638da5cb5b146103cd57806395d89b41146103eb57600080fd5b80632a55205a1161013e57806342842e0e1161011857806342842e0e146102fb578063476343ee1461031b5780634f1ef2861461033057806352d1902d1461034357600080fd5b80632a55205a1461027c57806330a8ff4e146102bb5780633659cfe6146102db57600080fd5b806301ffc9a71461018657806306fdde03146101bb578063081812fc146101dd578063095ea7b31461021557806313966db51461023757806323b872dd1461025c575b600080fd5b34801561019257600080fd5b506101a66101a13660046120df565b6104fc565b60405190151581526020015b60405180910390f35b3480156101c757600080fd5b506101d061050d565b6040516101b2919061214c565b3480156101e957600080fd5b506101fd6101f836600461215f565b61059f565b6040516001600160a01b0390911681526020016101b2565b34801561022157600080fd5b50610235610230366004612194565b6105c6565b005b34801561024357600080fd5b5061024e6101935481565b6040519081526020016101b2565b34801561026857600080fd5b506102356102773660046121be565b6106e0565b34801561028857600080fd5b5061029c6102973660046121fa565b610711565b604080516001600160a01b0390931683526020830191909152016101b2565b3480156102c757600080fd5b506102356102d63660046122bf565b6107bd565b3480156102e757600080fd5b506102356102f6366004612362565b610923565b34801561030757600080fd5b506102356103163660046121be565b610a02565b34801561032757600080fd5b50610235610a1d565b61023561033e36600461237d565b610b13565b34801561034f57600080fd5b5061024e610bdf565b34801561036457600080fd5b506102356103733660046123cb565b610c92565b34801561038457600080fd5b506101fd61039336600461215f565b610ce2565b3480156103a457600080fd5b5061024e6103b3366004612362565b610d42565b3480156103c457600080fd5b50610235610dc8565b3480156103d957600080fd5b5060fb546001600160a01b03166101fd565b3480156103f757600080fd5b506101d0610ddc565b34801561040c57600080fd5b5061023561041b366004612400565b610deb565b34801561042c57600080fd5b5061023561043b36600461243c565b610df6565b34801561044c57600080fd5b506101d061045b36600461215f565b610e2e565b61024e61046e36600461237d565b610e39565b34801561047f57600080fd5b506101a661048e3660046124a4565b6001600160a01b039182166000908152606a6020908152604080832093909416825291909152205460ff1690565b3480156104c857600080fd5b506102356104d736600461215f565b610efa565b3480156104e857600080fd5b506102356104f7366004612362565b610f38565b600061050782610fae565b92915050565b60606065805461051c906124d7565b80601f0160208091040260200160405190810160405280929190818152602001828054610548906124d7565b80156105955780601f1061056a57610100808354040283529160200191610595565b820191906000526020600020905b81548152906001019060200180831161057857829003601f168201915b5050505050905090565b60006105aa82610fd3565b506000908152606960205260409020546001600160a01b031690565b60006105d182610ce2565b9050806001600160a01b0316836001600160a01b0316036106435760405162461bcd60e51b815260206004820152602160248201527f4552433732313a20617070726f76616c20746f2063757272656e74206f776e656044820152603960f91b60648201526084015b60405180910390fd5b336001600160a01b038216148061065f575061065f813361048e565b6106d15760405162461bcd60e51b815260206004820152603d60248201527f4552433732313a20617070726f76652063616c6c6572206973206e6f7420746f60448201527f6b656e206f776e6572206f7220617070726f76656420666f7220616c6c000000606482015260840161063a565b6106db8383611032565b505050565b6106ea33826110a0565b6107065760405162461bcd60e51b815260040161063a90612511565b6106db83838361111f565b600082815260ca602090815260408083208151808301909252546001600160a01b038116808352600160a01b9091046001600160601b031692820192909252829161078657506040805180820190915260c9546001600160a01b0381168252600160a01b90046001600160601b031660208201525b6020810151600090612710906107a5906001600160601b031687612574565b6107af919061258b565b915196919550909350505050565b600054610100900460ff16158080156107dd5750600054600160ff909116105b806107f75750303b1580156107f7575060005460ff166001145b61085a5760405162461bcd60e51b815260206004820152602e60248201527f496e697469616c697a61626c653a20636f6e747261637420697320616c72656160448201526d191e481a5b9a5d1a585b1a5e995960921b606482015260840161063a565b6000805460ff19166001179055801561087d576000805461ff0019166101001790555b6108878686611283565b61088f6112b4565b6108976112b4565b61089f6112db565b6108a76112b4565b6101926108b485826125f3565b506101938390556001610191556108cc8260fa61130a565b6108d582610f38565b801561091b576000805461ff0019169055604051600181527f7f26b83ff96e1f2b6a682f133852f6798a09c465da95921460cefb38474024989060200160405180910390a15b505050505050565b6001600160a01b037f000000000000000000000000000000000000000000000000000000000000000016300361096b5760405162461bcd60e51b815260040161063a906126b3565b7f00000000000000000000000000000000000000000000000000000000000000006001600160a01b03166109b46000805160206128fb833981519152546001600160a01b031690565b6001600160a01b0316146109da5760405162461bcd60e51b815260040161063a906126ff565b6109e381611407565b604080516000808252602082019092526109ff9183919061140f565b50565b6106db83838360405180602001604052806000815250610df6565b610a2561157a565b4780610a695760405162461bcd60e51b81526020600482015260136024820152724e6f206665657320746f20776974686472617760681b604482015260640161063a565b6000610a7d60fb546001600160a01b031690565b6001600160a01b03168260405160006040518083038185875af1925050503d8060008114610ac7576040519150601f19603f3d011682016040523d82523d6000602084013e610acc565b606091505b5050905080610b0f5760405162461bcd60e51b815260206004820152600f60248201526e151c985b9cd9995c8819985a5b1959608a1b604482015260640161063a565b5050565b6001600160a01b037f0000000000000000000000000000000000000000000000000000000000000000163003610b5b5760405162461bcd60e51b815260040161063a906126b3565b7f00000000000000000000000000000000000000000000000000000000000000006001600160a01b0316610ba46000805160206128fb833981519152546001600160a01b031690565b6001600160a01b031614610bca5760405162461bcd60e51b815260040161063a906126ff565b610bd382611407565b610b0f8282600161140f565b6000306001600160a01b037f00000000000000000000000000000000000000000000000000000000000000001614610c7f5760405162461bcd60e51b815260206004820152603860248201527f555550535570677261646561626c653a206d757374206e6f742062652063616c60448201527f6c6564207468726f7567682064656c656761746563616c6c0000000000000000606482015260840161063a565b506000805160206128fb83398151915290565b610c9a61157a565b610192610ca782826125f3565b507f6741b2fc379fad678116fe3d4d4b9a1a184ab53ba36b86ad0fa66340b1ab41ad81604051610cd7919061214c565b60405180910390a150565b6000818152606760205260408120546001600160a01b0316806105075760405162461bcd60e51b8152602060048201526018602482015277115490cdcc8c4e881a5b9d985b1a59081d1bdad95b88125160421b604482015260640161063a565b60006001600160a01b038216610dac5760405162461bcd60e51b815260206004820152602960248201527f4552433732313a2061646472657373207a65726f206973206e6f7420612076616044820152683634b21037bbb732b960b91b606482015260840161063a565b506001600160a01b031660009081526068602052604090205490565b610dd061157a565b610dda60006115d4565b565b60606066805461051c906124d7565b610b0f338383611626565b610e0033836110a0565b610e1c5760405162461bcd60e51b815260040161063a90612511565b610e28848484846116f4565b50505050565b606061050782611727565b600061019354341015610e855760405162461bcd60e51b8152602060048201526014602482015273125b9cdd59999a58da595b9d081c185e5b595b9d60621b604482015260640161063a565b610191805460009182610e978361274b565b919050559050610ea78482611822565b610eb1818461183c565b80846001600160a01b03167fd35bb95e09c04b219e35047ce7b7b300e3384264ef84a40456943dbc0fc17c1485604051610eeb919061214c565b60405180910390a39392505050565b610f0261157a565b6101938190556040518181527f38fbb1c8b109c430f0c030e7ed076cf5611a307773a4e8e365601e8f8bceaec690602001610cd7565b610f4061157a565b6001600160a01b038116610fa55760405162461bcd60e51b815260206004820152602660248201527f4f776e61626c653a206e6577206f776e657220697320746865207a65726f206160448201526564647265737360d01b606482015260840161063a565b6109ff816115d4565b60006001600160e01b0319821663152a902d60e11b1480610507575061050782611907565b6000818152606760205260409020546001600160a01b03166109ff5760405162461bcd60e51b8152602060048201526018602482015277115490cdcc8c4e881a5b9d985b1a59081d1bdad95b88125160421b604482015260640161063a565b600081815260696020526040902080546001600160a01b0319166001600160a01b038416908117909155819061106782610ce2565b6001600160a01b03167f8c5be1e5ebec7d5bd14f71427d1e84f3dd0314c0f7b2291e5b200ac8c7c3b92560405160405180910390a45050565b6000806110ac83610ce2565b9050806001600160a01b0316846001600160a01b031614806110f357506001600160a01b038082166000908152606a602090815260408083209388168352929052205460ff165b806111175750836001600160a01b031661110c8461059f565b6001600160a01b0316145b949350505050565b826001600160a01b031661113282610ce2565b6001600160a01b0316146111585760405162461bcd60e51b815260040161063a90612764565b6001600160a01b0382166111ba5760405162461bcd60e51b8152602060048201526024808201527f4552433732313a207472616e7366657220746f20746865207a65726f206164646044820152637265737360e01b606482015260840161063a565b826001600160a01b03166111cd82610ce2565b6001600160a01b0316146111f35760405162461bcd60e51b815260040161063a90612764565b600081815260696020908152604080832080546001600160a01b03199081169091556001600160a01b0387811680865260688552838620805460001901905590871680865283862080546001019055868652606790945282852080549092168417909155905184937fddf252ad1be2c89b69c2b068fc378daa952ba7f163c4a11628f55a4df523b3ef91a4505050565b600054610100900460ff166112aa5760405162461bcd60e51b815260040161063a906127a9565b610b0f828261192c565b600054610100900460ff16610dda5760405162461bcd60e51b815260040161063a906127a9565b600054610100900460ff166113025760405162461bcd60e51b815260040161063a906127a9565b610dda61196c565b6127106001600160601b03821611156113785760405162461bcd60e51b815260206004820152602a60248201527f455243323938313a20726f79616c7479206665652077696c6c206578636565646044820152692073616c65507269636560b01b606482015260840161063a565b6001600160a01b0382166113ce5760405162461bcd60e51b815260206004820152601960248201527f455243323938313a20696e76616c696420726563656976657200000000000000604482015260640161063a565b604080518082019091526001600160a01b039092168083526001600160601b039091166020909201829052600160a01b9091021760c955565b6109ff61157a565b7f4910fdfa16fed3260ed0e7147f7cc6da11a60208b5b9406d12a635614ffd91435460ff1615611442576106db8361199c565b826001600160a01b03166352d1902d6040518163ffffffff1660e01b8152600401602060405180830381865afa92505050801561149c575060408051601f3d908101601f19168201909252611499918101906127f4565b60015b6114ff5760405162461bcd60e51b815260206004820152602e60248201527f45524331393637557067726164653a206e657720696d706c656d656e7461746960448201526d6f6e206973206e6f74205555505360901b606482015260840161063a565b6000805160206128fb833981519152811461156e5760405162461bcd60e51b815260206004820152602960248201527f45524331393637557067726164653a20756e737570706f727465642070726f786044820152681a58589b195555525160ba1b606482015260840161063a565b506106db838383611a38565b60fb546001600160a01b03163314610dda5760405162461bcd60e51b815260206004820181905260248201527f4f776e61626c653a2063616c6c6572206973206e6f7420746865206f776e6572604482015260640161063a565b60fb80546001600160a01b038381166001600160a01b0319831681179093556040519116919082907f8be0079c531659141344cd1fd0a4f28419497f9722a3daafe3b4186f6b6457e090600090a35050565b816001600160a01b0316836001600160a01b0316036116875760405162461bcd60e51b815260206004820152601960248201527f4552433732313a20617070726f766520746f2063616c6c657200000000000000604482015260640161063a565b6001600160a01b038381166000818152606a6020908152604080832094871680845294825291829020805460ff191686151590811790915591519182527f17307eab39ab6107e8899845ad3d59bd9653f200f220920489ca2b5937696c31910160405180910390a3505050565b6116ff84848461111f565b61170b84848484611a5d565b610e285760405162461bcd60e51b815260040161063a9061280d565b606061173282610fd3565b6000828152609760205260408120805461174b906124d7565b80601f0160208091040260200160405190810160405280929190818152602001828054611777906124d7565b80156117c45780601f10611799576101008083540402835291602001916117c4565b820191906000526020600020905b8154815290600101906020018083116117a757829003601f168201915b5050505050905060006117d5611b5e565b905080516000036117e7575092915050565b81511561181957808260405160200161180192919061285f565b60405160208183030381529060405292505050919050565b61111784611b6e565b610b0f828260405180602001604052806000815250611bd5565b6000828152606760205260409020546001600160a01b03166118b75760405162461bcd60e51b815260206004820152602e60248201527f45524337323155524953746f726167653a2055524920736574206f66206e6f6e60448201526d32bc34b9ba32b73a103a37b5b2b760911b606482015260840161063a565b60008281526097602052604090206118cf82826125f3565b506040518281527ff8e1a15aba9398e019f0b49df1a4fde98ee17ae345cb5f6b5e2c27f5033e8ce79060200160405180910390a15050565b60006001600160e01b03198216632483248360e11b1480610507575061050782611c08565b600054610100900460ff166119535760405162461bcd60e51b815260040161063a906127a9565b606561195f83826125f3565b5060666106db82826125f3565b600054610100900460ff166119935760405162461bcd60e51b815260040161063a906127a9565b610dda336115d4565b6001600160a01b0381163b611a095760405162461bcd60e51b815260206004820152602d60248201527f455243313936373a206e657720696d706c656d656e746174696f6e206973206e60448201526c1bdd08184818dbdb9d1c9858dd609a1b606482015260840161063a565b6000805160206128fb83398151915280546001600160a01b0319166001600160a01b0392909216919091179055565b611a4183611c58565b600082511180611a4e5750805b156106db57610e288383611c98565b60006001600160a01b0384163b15611b5357604051630a85bd0160e11b81526001600160a01b0385169063150b7a0290611aa190339089908890889060040161288e565b6020604051808303816000875af1925050508015611adc575060408051601f3d908101601f19168201909252611ad9918101906128c1565b60015b611b39573d808015611b0a576040519150601f19603f3d011682016040523d82523d6000602084013e611b0f565b606091505b508051600003611b315760405162461bcd60e51b815260040161063a9061280d565b805181602001fd5b6001600160e01b031916630a85bd0160e11b149050611117565b506001949350505050565b6060610192805461051c906124d7565b6060611b7982610fd3565b6000611b83611b5e565b90506000815111611ba35760405180602001604052806000815250611bce565b80611bad84611cbd565b604051602001611bbe92919061285f565b6040516020818303038152906040525b9392505050565b611bdf8383611d50565b611bec6000848484611a5d565b6106db5760405162461bcd60e51b815260040161063a9061280d565b60006001600160e01b031982166380ac58cd60e01b1480611c3957506001600160e01b03198216635b5e139f60e01b145b8061050757506301ffc9a760e01b6001600160e01b0319831614610507565b611c618161199c565b6040516001600160a01b038216907fbc7cd75a20ee27fd9adebab32041f755214dbc6bffa90cc0225b39da2e5c2d3b90600090a250565b6060611bce838360405180606001604052806027815260200161291b60279139611edb565b60606000611cca83611f53565b600101905060008167ffffffffffffffff811115611cea57611cea61221c565b6040519080825280601f01601f191660200182016040528015611d14576020820181803683370190505b5090508181016020015b600019016f181899199a1a9b1b9c1cb0b131b232b360811b600a86061a8153600a8504945084611d1e57509392505050565b6001600160a01b038216611da65760405162461bcd60e51b815260206004820181905260248201527f4552433732313a206d696e7420746f20746865207a65726f2061646472657373604482015260640161063a565b6000818152606760205260409020546001600160a01b031615611e0b5760405162461bcd60e51b815260206004820152601c60248201527f4552433732313a20746f6b656e20616c7265616479206d696e74656400000000604482015260640161063a565b6000818152606760205260409020546001600160a01b031615611e705760405162461bcd60e51b815260206004820152601c60248201527f4552433732313a20746f6b656e20616c7265616479206d696e74656400000000604482015260640161063a565b6001600160a01b038216600081815260686020908152604080832080546001019055848352606790915280822080546001600160a01b0319168417905551839291907fddf252ad1be2c89b69c2b068fc378daa952ba7f163c4a11628f55a4df523b3ef908290a45050565b6060600080856001600160a01b031685604051611ef891906128de565b600060405180830381855af49150503d8060008114611f33576040519150601f19603f3d011682016040523d82523d6000602084013e611f38565b606091505b5091509150611f498683838761202b565b9695505050505050565b60008072184f03e93ff9f4daa797ed6e38ed64bf6a1f0160401b8310611f925772184f03e93ff9f4daa797ed6e38ed64bf6a1f0160401b830492506040015b6d04ee2d6d415b85acef81000000008310611fbe576d04ee2d6d415b85acef8100000000830492506020015b662386f26fc100008310611fdc57662386f26fc10000830492506010015b6305f5e1008310611ff4576305f5e100830492506008015b612710831061200857612710830492506004015b6064831061201a576064830492506002015b600a83106105075760010192915050565b6060831561209a578251600003612093576001600160a01b0385163b6120935760405162461bcd60e51b815260206004820152601d60248201527f416464726573733a2063616c6c20746f206e6f6e2d636f6e7472616374000000604482015260640161063a565b5081611117565b61111783838151156120af5781518083602001fd5b8060405162461bcd60e51b815260040161063a919061214c565b6001600160e01b0319811681146109ff57600080fd5b6000602082840312156120f157600080fd5b8135611bce816120c9565b60005b838110156121175781810151838201526020016120ff565b50506000910152565b600081518084526121388160208601602086016120fc565b601f01601f19169290920160200192915050565b602081526000611bce6020830184612120565b60006020828403121561217157600080fd5b5035919050565b80356001600160a01b038116811461218f57600080fd5b919050565b600080604083850312156121a757600080fd5b6121b083612178565b946020939093013593505050565b6000806000606084860312156121d357600080fd5b6121dc84612178565b92506121ea60208501612178565b9150604084013590509250925092565b6000806040838503121561220d57600080fd5b50508035926020909101359150565b634e487b7160e01b600052604160045260246000fd5b600082601f83011261224357600080fd5b813567ffffffffffffffff8082111561225e5761225e61221c565b604051601f8301601f19908116603f011681019082821181831017156122865761228661221c565b8160405283815286602085880101111561229f57600080fd5b836020870160208301376000602085830101528094505050505092915050565b600080600080600060a086880312156122d757600080fd5b853567ffffffffffffffff808211156122ef57600080fd5b6122fb89838a01612232565b9650602088013591508082111561231157600080fd5b61231d89838a01612232565b9550604088013591508082111561233357600080fd5b5061234088828901612232565b9350506060860135915061235660808701612178565b90509295509295909350565b60006020828403121561237457600080fd5b611bce82612178565b6000806040838503121561239057600080fd5b61239983612178565b9150602083013567ffffffffffffffff8111156123b557600080fd5b6123c185828601612232565b9150509250929050565b6000602082840312156123dd57600080fd5b813567ffffffffffffffff8111156123f457600080fd5b61111784828501612232565b6000806040838503121561241357600080fd5b61241c83612178565b91506020830135801515811461243157600080fd5b809150509250929050565b6000806000806080858703121561245257600080fd5b61245b85612178565b935061246960208601612178565b925060408501359150606085013567ffffffffffffffff81111561248c57600080fd5b61249887828801612232565b91505092959194509250565b600080604083850312156124b757600080fd5b6124c083612178565b91506124ce60208401612178565b90509250929050565b600181811c908216806124eb57607f821691505b60208210810361250b57634e487b7160e01b600052602260045260246000fd5b50919050565b6020808252602d908201527f4552433732313a2063616c6c6572206973206e6f7420746f6b656e206f776e6560408201526c1c881bdc88185c1c1c9bdd9959609a1b606082015260800190565b634e487b7160e01b600052601160045260246000fd5b80820281158282048414176105075761050761255e565b6000826125a857634e487b7160e01b600052601260045260246000fd5b500490565b601f8211156106db57600081815260208120601f850160051c810160208610156125d45750805b601f850160051c820191505b8181101561091b578281556001016125e0565b815167ffffffffffffffff81111561260d5761260d61221c565b6126218161261b84546124d7565b846125ad565b602080601f831160018114612656576000841561263e5750858301515b600019600386901b1c1916600185901b17855561091b565b600085815260208120601f198616915b8281101561268557888601518255948401946001909101908401612666565b50858210156126a35787850151600019600388901b60f8161c191681555b5050505050600190811b01905550565b6020808252602c908201527f46756e6374696f6e206d7573742062652063616c6c6564207468726f7567682060408201526b19195b1959d85d1958d85b1b60a21b606082015260800190565b6020808252602c908201527f46756e6374696f6e206d7573742062652063616c6c6564207468726f7567682060408201526b6163746976652070726f787960a01b606082015260800190565b60006001820161275d5761275d61255e565b5060010190565b60208082526025908201527f4552433732313a207472616e736665722066726f6d20696e636f72726563742060408201526437bbb732b960d91b606082015260800190565b6020808252602b908201527f496e697469616c697a61626c653a20636f6e7472616374206973206e6f74206960408201526a6e697469616c697a696e6760a81b606082015260800190565b60006020828403121561280657600080fd5b5051919050565b60208082526032908201527f4552433732313a207472616e7366657220746f206e6f6e20455243373231526560408201527131b2b4bb32b91034b6b83632b6b2b73a32b960711b606082015260800190565b600083516128718184602088016120fc565b8351908301906128858183602088016120fc565b01949350505050565b6001600160a01b0385811682528416602082015260408101839052608060608201819052600090611f4990830184612120565b6000602082840312156128d357600080fd5b8151611bce816120c9565b600082516128f08184602087016120fc565b919091019291505056fe360894a13ba1a3210667c828492db98dca3e2076cc3735a920a3ca505d382bbc416464726573733a206c6f772d6c6576656c2064656c65676174652063616c6c206661696c6564a2646970667358221220c67a1f9a56bb96eb6c03bdf335d951dfe5ada57681486809fd8949362b5c563064736f6c63430008140033",
  "devdoc": {
    "details": "NFT contract for Zoda Farcaster mini app on Base network",
    "events": {
      "AdminChanged(address,address)": {
        "details": "Emitted when the admin account has changed."
      },
      "Approval(address,address,uint256)": {
        "details": "Emitted when `owner` enables `approved` to manage the `tokenId` token."
      },
      "ApprovalForAll(address,address,bool)": {
        "details": "Emitted when `owner` enables or disables (`approved`) `operator` to manage all of its assets."
      },
      "BatchMetadataUpdate(uint256,uint256)": {
        "details": "This event emits when the metadata of a range of tokens is changed. So that the third-party platforms such as NFT market could timely update the images and related attributes of the NFTs."
      },
      "BeaconUpgraded(address)": {
        "details": "Emitted when the beacon is changed."
      },
      "Initialized(uint8)": {
        "details": "Triggered when the contract has been initialized or reinitialized."
      },
      "MetadataUpdate(uint256)": {
        "details": "This event emits when the metadata of a token is changed. So that the third-party platforms such as NFT market could timely update the images and related attributes of the NFT."
      },
      "Transfer(address,address,uint256)": {
        "details": "Emitted when `tokenId` token is transferred from `from` to `to`."
      },
      "Upgraded(address)": {
        "details": "Emitted when the implementation is upgraded."
      }
    },
    "kind": "dev",
    "methods": {
      "approve(address,uint256)": {
        "details": "See {IERC721-approve}."
      },
      "balanceOf(address)": {
        "details": "See {IERC721-balanceOf}."
      },
      "constructor": {
        "custom:oz-upgrades-unsafe-allow": "constructor"
      },
      "getApproved(uint256)": {
        "details": "See {IERC721-getApproved}."
      },
      "isApprovedForAll(address,address)": {
        "details": "See {IERC721-isApprovedForAll}."
      },
      "name()": {
        "details": "See {IERC721Metadata-name}."
      },
      "owner()": {
        "details": "Returns the address of the current owner."
      },
      "ownerOf(uint256)": {
        "details": "See {IERC721-ownerOf}."
      },
      "proxiableUUID()": {
        "details": "Implementation of the ERC1822 {proxiableUUID} function. This returns the storage slot used by the implementation. It is used to validate the implementation's compatibility when performing an upgrade. IMPORTANT: A proxy pointing at a proxiable contract should not be considered proxiable itself, because this risks bricking a proxy that upgrades to it, by delegating to itself until out of gas. Thus it is critical that this function revert if invoked through a proxy. This is guaranteed by the `notDelegated` modifier."
      },
      "renounceOwnership()": {
        "details": "Leaves the contract without owner. It will not be possible to call `onlyOwner` functions. Can only be called by the current owner. NOTE: Renouncing ownership will leave the contract without an owner, thereby disabling any functionality that is only available to the owner."
      },
      "royaltyInfo(uint256,uint256)": {
        "details": "Returns how much royalty is owed and to whom, based on a sale price that may be denominated in any unit of exchange. The royalty amount is denominated and should be paid in that same unit of exchange."
      },
      "safeTransferFrom(address,address,uint256)": {
        "details": "See {IERC721-safeTransferFrom}."
      },
      "safeTransferFrom(address,address,uint256,bytes)": {
        "details": "See {IERC721-safeTransferFrom}."
      },
      "setApprovalForAll(address,bool)": {
        "details": "See {IERC721-setApprovalForAll}."
      },
      "symbol()": {
        "details": "See {IERC721Metadata-symbol}."
      },
      "transferFrom(address,address,uint256)": {
        "details": "See {IERC721-transferFrom}."
      },
      "transferOwnership(address)": {
        "details": "Transfers ownership of the contract to a new account (`newOwner`). Can only be called by the current owner."
      },
      "upgradeTo(address)": {
        "custom:oz-upgrades-unsafe-allow-reachable": "delegatecall",
        "details": "Upgrade the implementation of the proxy to `newImplementation`. Calls {_authorizeUpgrade}. Emits an {Upgraded} event."
      },
      "upgradeToAndCall(address,bytes)": {
        "custom:oz-upgrades-unsafe-allow-reachable": "delegatecall",
        "details": "Upgrade the implementation of the proxy to `newImplementation`, and subsequently execute the function call encoded in `data`. Calls {_authorizeUpgrade}. Emits an {Upgraded} event."
      }
    },
    "title": "ZodaNFT",
    "version": 1
  },
  "userdoc": {
    "kind": "user",
    "methods": {},
    "version": 1
  },
  "storageLayout": {
    "storage": [
      {
        "astId": 550,
        "contract": "contracts/ZodaNFT.sol:ZodaNFT",
        "label": "_initialized",
        "offset": 0,
        "slot": "0",
        "type": "t_uint8"
      },
      {
        "astId": 553,
        "contract": "contracts/ZodaNFT.sol:ZodaNFT",
        "label": "_initializing",
        "offset": 1,
        "slot": "0",
        "type": "t_bool"
      },
      {
        "astId": 2726,
        "contract": "contracts/ZodaNFT.sol:ZodaNFT",
        "label": "__gap",
        "offset": 0,
        "slot": "1",
        "type": "t_array(t_uint256)50_storage"
      },
      {
        "astId": 3109,
        "contract": "contracts/ZodaNFT.sol:ZodaNFT",
        "label": "__gap",
        "offset": 0,
        "slot": "51",
        "type": "t_array(t_uint256)50_storage"
      },
      {
        "astId": 877,
        "contract": "contracts/ZodaNFT.sol:ZodaNFT",
        "label": "_name",
        "offset": 0,
        "slot": "101",
        "type": "t_string_storage"
      },
      {
        "astId": 879,
        "contract": "contracts/ZodaNFT.sol:ZodaNFT",
        "label": "_symbol",
        "offset": 0,
        "slot": "102",
        "type": "t_string_storage"
      },
      {
        "astId": 883,
        "contract": "contracts/ZodaNFT.sol:ZodaNFT",
        "label": "_owners",
        "offset": 0,
        "slot": "103",
        "type": "t_mapping(t_uint256,t_address)"
      },
      {
        "astId": 887,
        "contract": "contracts/ZodaNFT.sol:ZodaNFT",
        "label": "_balances",
        "offset": 0,
        "slot": "104",
        "type": "t_mapping(t_address,t_uint256)"
      },
      {
        "astId": 891,
        "contract": "contracts/ZodaNFT.sol:ZodaNFT",
        "label": "_tokenApprovals",
        "offset": 0,
        "slot": "105",
        "type": "t_mapping(t_uint256,t_address)"
      },
      {
        "astId": 897,
        "contract": "contracts/ZodaNFT.sol:ZodaNFT",
        "label": "_operatorApprovals",
        "offset": 0,
        "slot": "106",
        "type": "t_mapping(t_address,t_mapping(t_address,t_bool))"
      },
      {
        "astId": 1799,
        "contract": "contracts/ZodaNFT.sol:ZodaNFT",
        "label": "__gap",
        "offset": 0,
        "slot": "107",
        "type": "t_array(t_uint256)44_storage"
      },
      {
        "astId": 1965,
        "contract": "contracts/ZodaNFT.sol:ZodaNFT",
        "label": "_tokenURIs",
        "offset": 0,
        "slot": "151",
        "type": "t_mapping(t_uint256,t_string_storage)"
      },
      {
        "astId": 2109,
        "contract": "contracts/ZodaNFT.sol:ZodaNFT",
        "label": "__gap",
        "offset": 0,
        "slot": "152",
        "type": "t_array(t_uint256)49_storage"
      },
      {
        "astId": 2169,
        "contract": "contracts/ZodaNFT.sol:ZodaNFT",
        "label": "_defaultRoyaltyInfo",
        "offset": 0,
        "slot": "201",
        "type": "t_struct(RoyaltyInfo)2166_storage"
      },
      {
        "astId": 2174,
        "contract": "contracts/ZodaNFT.sol:ZodaNFT",
        "label": "_tokenRoyaltyInfo",
        "offset": 0,
        "slot": "202",
        "type": "t_mapping(t_uint256,t_struct(RoyaltyInfo)2166_storage)"
      },
      {
        "astId": 2354,
        "contract": "contracts/ZodaNFT.sol:ZodaNFT",
        "label": "__gap",
        "offset": 0,
        "slot": "203",
        "type": "t_array(t_uint256)48_storage"
      },
      {
        "astId": 10,
        "contract": "contracts/ZodaNFT.sol:ZodaNFT",
        "label": "_owner",
        "offset": 0,
        "slot": "251",
        "type": "t_address"
      },
      {
        "astId": 130,
        "contract": "contracts/ZodaNFT.sol:ZodaNFT",
        "label": "__gap",
        "offset": 0,
        "slot": "252",
        "type": "t_array(t_uint256)49_storage"
      },
      {
        "astId": 532,
        "contract": "contracts/ZodaNFT.sol:ZodaNFT",
        "label": "__gap",
        "offset": 0,
        "slot": "301",
        "type": "t_array(t_uint256)50_storage"
      },
      {
        "astId": 847,
        "contract": "contracts/ZodaNFT.sol:ZodaNFT",
        "label": "__gap",
        "offset": 0,
        "slot": "351",
        "type": "t_array(t_uint256)50_storage"
      },
      {
        "astId": 5460,
        "contract": "contracts/ZodaNFT.sol:ZodaNFT",
        "label": "_nextTokenId",
        "offset": 0,
        "slot": "401",
        "type": "t_uint256"
      },
      {
        "astId": 5462,
        "contract": "contracts/ZodaNFT.sol:ZodaNFT",
        "label": "_baseTokenURI",
        "offset": 0,
        "slot": "402",
        "type": "t_string_storage"
      },
      {
        "astId": 5464,
        "contract": "contracts/ZodaNFT.sol:ZodaNFT",
        "label": "mintFee",
        "offset": 0,
        "slot": "403",
        "type": "t_uint256"
      }
    ],
    "types": {
      "t_address": {
        "encoding": "inplace",
        "label": "address",
        "numberOfBytes": "20"
      },
      "t_array(t_uint256)44_storage": {
        "base": "t_uint256",
        "encoding": "inplace",
        "label": "uint256[44]",
        "numberOfBytes": "1408"
      },
      "t_array(t_uint256)48_storage": {
        "base": "t_uint256",
        "encoding": "inplace",
        "label": "uint256[48]",
        "numberOfBytes": "1536"
      },
      "t_array(t_uint256)49_storage": {
        "base": "t_uint256",
        "encoding": "inplace",
        "label": "uint256[49]",
        "numberOfBytes": "1568"
      },
      "t_array(t_uint256)50_storage": {
        "base": "t_uint256",
        "encoding": "inplace",
        "label": "uint256[50]",
        "numberOfBytes": "1600"
      },
      "t_bool": {
        "encoding": "inplace",
        "label": "bool",
        "numberOfBytes": "1"
      },
      "t_mapping(t_address,t_bool)": {
        "encoding": "mapping",
        "key": "t_address",
        "label": "mapping(address => bool)",
        "numberOfBytes": "32",
        "value": "t_bool"
      },
      "t_mapping(t_address,t_mapping(t_address,t_bool))": {
        "encoding": "mapping",
        "key": "t_address",
        "label": "mapping(address => mapping(address => bool))",
        "numberOfBytes": "32",
        "value": "t_mapping(t_address,t_bool)"
      },
      "t_mapping(t_address,t_uint256)": {
        "encoding": "mapping",
        "key": "t_address",
        "label": "mapping(address => uint256)",
        "numberOfBytes": "32",
        "value": "t_uint256"
      },
      "t_mapping(t_uint256,t_address)": {
        "encoding": "mapping",
        "key": "t_uint256",
        "label": "mapping(uint256 => address)",
        "numberOfBytes": "32",
        "value": "t_address"
      },
      "t_mapping(t_uint256,t_string_storage)": {
        "encoding": "mapping",
        "key": "t_uint256",
        "label": "mapping(uint256 => string)",
        "numberOfBytes": "32",
        "value": "t_string_storage"
      },
      "t_mapping(t_uint256,t_struct(RoyaltyInfo)2166_storage)": {
        "encoding": "mapping",
        "key": "t_uint256",
        "label": "mapping(uint256 => struct ERC2981Upgradeable.RoyaltyInfo)",
        "numberOfBytes": "32",
        "value": "t_struct(RoyaltyInfo)2166_storage"
      },
      "t_string_storage": {
        "encoding": "bytes",
        "label": "string",
        "numberOfBytes": "32"
      },
      "t_struct(RoyaltyInfo)2166_storage": {
        "encoding": "inplace",
        "label": "struct ERC2981Upgradeable.RoyaltyInfo",
        "members": [
          {
            "astId": 2163,
            "contract": "contracts/ZodaNFT.sol:ZodaNFT",
            "label": "receiver",
            "offset": 0,
            "slot": "0",
            "type": "t_address"
          },
          {
            "astId": 2165,
            "contract": "contracts/ZodaNFT.sol:ZodaNFT",
            "label": "royaltyFraction",
            "offset": 20,
            "slot": "0",
            "type": "t_uint96"
          }
        ],
        "numberOfBytes": "32"
      },
      "t_uint256": {
        "encoding": "inplace",
        "label": "uint256",
        "numberOfBytes": "32"
      },
      "t_uint8": {
        "encoding": "inplace",
        "label": "uint8",
        "numberOfBytes": "1"
      },
      "t_uint96": {
        "encoding": "inplace",
        "label": "uint96",
        "numberOfBytes": "12"
      }
    }
  }
}