{
  "address": "0x5478b5615Cd2EC6D9cDB1811f0c3C3Eb3e0FFb58",
  "abi": [
    {
      "inputs": [],
      "stateMutability": "nonpayable",
      "type": "constructor"
    },
    {
      "anonymous": false,
      "inputs": [
        {
          "indexed": false,
          "internalType": "address",
          "name": "previousAdmin",
          "type": "address"
        },
        {
          "indexed": false,
          "internalType": "address",
          "name": "newAdmin",
          "type": "address"
        }
      ],
      "name": "AdminChanged",
      "type": "event"
    },
    {
      "anonymous": false,
      "inputs": [
        {
          "indexed": true,
          "internalType": "address",
          "name": "owner",
          "type": "address"
        },
        {
          "indexed": true,
          "internalType": "address",
          "name": "approved",
          "type": "address"
        },
        {
          "indexed": true,
          "internalType": "uint256",
          "name": "tokenId",
          "type": "uint256"
        }
      ],
      "name": "Approval",
      "type": "event"
    },
    {
      "anonymous": false,
      "inputs": [
        {
          "indexed": true,
          "internalType": "address",
          "name": "owner",
          "type": "address"
        },
        {
          "indexed": true,
          "internalType": "address",
          "name": "operator",
          "type": "address"
        },
        {
          "indexed": false,
          "internalType": "bool",
          "name": "approved",
          "type": "bool"
        }
      ],
      "name": "ApprovalForAll",
      "type": "event"
    },
    {
      "anonymous": false,
      "inputs": [
        {
          "indexed": false,
          "internalType": "uint256",
          "name": "_fromTokenId",
          "type": "uint256"
        },
        {
          "indexed": false,
          "internalType": "uint256",
          "name": "_toTokenId",
          "type": "uint256"
        }
      ],
      "name": "BatchMetadataUpdate",
      "type": "event"
    },
    {
      "anonymous": false,
      "inputs": [
        {
          "indexed": true,
          "internalType": "address",
          "name": "beacon",
          "type": "address"
        }
      ],
      "name": "BeaconUpgraded",
      "type": "event"
    },
    {
      "anonymous": false,
      "inputs": [
        {
          "indexed": false,
          "internalType": "uint8",
          "name": "version",
          "type": "uint8"
        }
      ],
      "name": "Initialized",
      "type": "event"
    },
    {
      "anonymous": false,
      "inputs": [
        {
          "indexed": false,
          "internalType": "uint256",
          "name": "_tokenId",
          "type": "uint256"
        }
      ],
      "name": "MetadataUpdate",
      "type": "event"
    },
    {
      "anonymous": false,
      "inputs": [
        {
          "indexed": false,
          "internalType": "uint256",
          "name": "newFee",
          "type": "uint256"
        }
      ],
      "name": "MintFeeUpdated",
      "type": "event"
    },
    {
      "anonymous": false,
      "inputs": [
        {
          "indexed": true,
          "internalType": "address",
          "name": "to",
          "type": "address"
        },
        {
          "indexed": true,
          "internalType": "uint256",
          "name": "tokenId",
          "type": "uint256"
        },
        {
          "indexed": false,
          "internalType": "string",
          "name": "uri",
          "type": "string"
        }
      ],
      "name": "NFTMinted",
      "type": "event"
    },
    {
      "anonymous": false,
      "inputs": [
        {
          "indexed": true,
          "internalType": "address",
          "name": "previousOwner",
          "type": "address"
        },
        {
          "indexed": true,
          "internalType": "address",
          "name": "newOwner",
          "type": "address"
        }
      ],
      "name": "OwnershipTransferred",
      "type": "event"
    },
    {
      "anonymous": false,
      "inputs": [
        {
          "indexed": true,
          "internalType": "address",
          "name": "from",
          "type": "address"
        },
        {
          "indexed": true,
          "internalType": "address",
          "name": "to",
          "type": "address"
        },
        {
          "indexed": true,
          "internalType": "uint256",
          "name": "tokenId",
          "type": "uint256"
        }
      ],
      "name": "Transfer",
      "type": "event"
    },
    {
      "anonymous": false,
      "inputs": [
        {
          "indexed": false,
          "internalType": "address",
          "name": "newTreasury",
          "type": "address"
        }
      ],
      "name": "TreasuryAddressUpdated",
      "type": "event"
    },
    {
      "anonymous": false,
      "inputs": [
        {
          "indexed": false,
          "internalType": "address",
          "name": "newUSDCContract",
          "type": "address"
        }
      ],
      "name": "USDCContractUpdated",
      "type": "event"
    },
    {
      "anonymous": false,
      "inputs": [
        {
          "indexed": true,
          "internalType": "address",
          "name": "implementation",
          "type": "address"
        }
      ],
      "name": "Upgraded",
      "type": "event"
    },
    {
      "inputs": [
        {
          "internalType": "address",
          "name": "to",
          "type": "address"
        },
        {
          "internalType": "uint256",
          "name": "tokenId",
          "type": "uint256"
        }
      ],
      "name": "approve",
      "outputs": [],
      "stateMutability": "nonpayable",
      "type": "function"
    },
    {
      "inputs": [
        {
          "internalType": "address",
          "name": "owner",
          "type": "address"
        }
      ],
      "name": "balanceOf",
      "outputs": [
        {
          "internalType": "uint256",
          "name": "",
          "type": "uint256"
        }
      ],
      "stateMutability": "view",
      "type": "function"
    },
    {
      "inputs": [
        {
          "internalType": "uint256",
          "name": "tokenId",
          "type": "uint256"
        }
      ],
      "name": "getApproved",
      "outputs": [
        {
          "internalType": "address",
          "name": "",
          "type": "address"
        }
      ],
      "stateMutability": "view",
      "type": "function"
    },
    {
      "inputs": [
        {
          "internalType": "string",
          "name": "name",
          "type": "string"
        },
        {
          "internalType": "string",
          "name": "symbol",
          "type": "string"
        },
        {
          "internalType": "uint256",
          "name": "initialMintFee",
          "type": "uint256"
        },
        {
          "internalType": "address",
          "name": "initialOwner",
          "type": "address"
        },
        {
          "internalType": "address payable",
          "name": "initialTreasury",
          "type": "address"
        },
        {
          "internalType": "address",
          "name": "_usdcAddress",
          "type": "address"
        }
      ],
      "name": "initialize",
      "outputs": [],
      "stateMutability": "nonpayable",
      "type": "function"
    },
    {
      "inputs": [
        {
          "internalType": "address",
          "name": "owner",
          "type": "address"
        },
        {
          "internalType": "address",
          "name": "operator",
          "type": "address"
        }
      ],
      "name": "isApprovedForAll",
      "outputs": [
        {
          "internalType": "bool",
          "name": "",
          "type": "bool"
        }
      ],
      "stateMutability": "view",
      "type": "function"
    },
    {
      "inputs": [
        {
          "internalType": "address",
          "name": "to",
          "type": "address"
        },
        {
          "internalType": "string",
          "name": "metadataURI",
          "type": "string"
        }
      ],
      "name": "mint",
      "outputs": [
        {
          "internalType": "uint256",
          "name": "",
          "type": "uint256"
        }
      ],
      "stateMutability": "nonpayable",
      "type": "function"
    },
    {
      "inputs": [],
      "name": "mintFee",
      "outputs": [
        {
          "internalType": "uint256",
          "name": "",
          "type": "uint256"
        }
      ],
      "stateMutability": "view",
      "type": "function"
    },
    {
      "inputs": [],
      "name": "name",
      "outputs": [
        {
          "internalType": "string",
          "name": "",
          "type": "string"
        }
      ],
      "stateMutability": "view",
      "type": "function"
    },
    {
      "inputs": [],
      "name": "nextTokenId",
      "outputs": [
        {
          "internalType": "uint256",
          "name": "",
          "type": "uint256"
        }
      ],
      "stateMutability": "view",
      "type": "function"
    },
    {
      "inputs": [],
      "name": "owner",
      "outputs": [
        {
          "internalType": "address",
          "name": "",
          "type": "address"
        }
      ],
      "stateMutability": "view",
      "type": "function"
    },
    {
      "inputs": [
        {
          "internalType": "uint256",
          "name": "tokenId",
          "type": "uint256"
        }
      ],
      "name": "ownerOf",
      "outputs": [
        {
          "internalType": "address",
          "name": "",
          "type": "address"
        }
      ],
      "stateMutability": "view",
      "type": "function"
    },
    {
      "inputs": [],
      "name": "proxiableUUID",
      "outputs": [
        {
          "internalType": "bytes32",
          "name": "",
          "type": "bytes32"
        }
      ],
      "stateMutability": "view",
      "type": "function"
    },
    {
      "inputs": [],
      "name": "renounceOwnership",
      "outputs": [],
      "stateMutability": "nonpayable",
      "type": "function"
    },
    {
      "inputs": [
        {
          "internalType": "uint256",
          "name": "tokenId",
          "type": "uint256"
        },
        {
          "internalType": "uint256",
          "name": "salePrice",
          "type": "uint256"
        }
      ],
      "name": "royaltyInfo",
      "outputs": [
        {
          "internalType": "address",
          "name": "",
          "type": "address"
        },
        {
          "internalType": "uint256",
          "name": "",
          "type": "uint256"
        }
      ],
      "stateMutability": "view",
      "type": "function"
    },
    {
      "inputs": [
        {
          "internalType": "address",
          "name": "from",
          "type": "address"
        },
        {
          "internalType": "address",
          "name": "to",
          "type": "address"
        },
        {
          "internalType": "uint256",
          "name": "tokenId",
          "type": "uint256"
        }
      ],
      "name": "safeTransferFrom",
      "outputs": [],
      "stateMutability": "nonpayable",
      "type": "function"
    },
    {
      "inputs": [
        {
          "internalType": "address",
          "name": "from",
          "type": "address"
        },
        {
          "internalType": "address",
          "name": "to",
          "type": "address"
        },
        {
          "internalType": "uint256",
          "name": "tokenId",
          "type": "uint256"
        },
        {
          "internalType": "bytes",
          "name": "data",
          "type": "bytes"
        }
      ],
      "name": "safeTransferFrom",
      "outputs": [],
      "stateMutability": "nonpayable",
      "type": "function"
    },
    {
      "inputs": [
        {
          "internalType": "address",
          "name": "operator",
          "type": "address"
        },
        {
          "internalType": "bool",
          "name": "approved",
          "type": "bool"
        }
      ],
      "name": "setApprovalForAll",
      "outputs": [],
      "stateMutability": "nonpayable",
      "type": "function"
    },
    {
      "inputs": [
        {
          "internalType": "uint256",
          "name": "newFee",
          "type": "uint256"
        }
      ],
      "name": "setMintFee",
      "outputs": [],
      "stateMutability": "nonpayable",
      "type": "function"
    },
    {
      "inputs": [
        {
          "internalType": "address payable",
          "name": "newTreasury",
          "type": "address"
        }
      ],
      "name": "setTreasuryAddress",
      "outputs": [],
      "stateMutability": "nonpayable",
      "type": "function"
    },
    {
      "inputs": [
        {
          "internalType": "address",
          "name": "newUSDCContract",
          "type": "address"
        }
      ],
      "name": "setUSDCContract",
      "outputs": [],
      "stateMutability": "nonpayable",
      "type": "function"
    },
    {
      "inputs": [
        {
          "internalType": "bytes4",
          "name": "interfaceId",
          "type": "bytes4"
        }
      ],
      "name": "supportsInterface",
      "outputs": [
        {
          "internalType": "bool",
          "name": "",
          "type": "bool"
        }
      ],
      "stateMutability": "view",
      "type": "function"
    },
    {
      "inputs": [],
      "name": "symbol",
      "outputs": [
        {
          "internalType": "string",
          "name": "",
          "type": "string"
        }
      ],
      "stateMutability": "view",
      "type": "function"
    },
    {
      "inputs": [
        {
          "internalType": "uint256",
          "name": "tokenId",
          "type": "uint256"
        }
      ],
      "name": "tokenURI",
      "outputs": [
        {
          "internalType": "string",
          "name": "",
          "type": "string"
        }
      ],
      "stateMutability": "view",
      "type": "function"
    },
    {
      "inputs": [
        {
          "internalType": "address",
          "name": "from",
          "type": "address"
        },
        {
          "internalType": "address",
          "name": "to",
          "type": "address"
        },
        {
          "internalType": "uint256",
          "name": "tokenId",
          "type": "uint256"
        }
      ],
      "name": "transferFrom",
      "outputs": [],
      "stateMutability": "nonpayable",
      "type": "function"
    },
    {
      "inputs": [
        {
          "internalType": "address",
          "name": "newOwner",
          "type": "address"
        }
      ],
      "name": "transferOwnership",
      "outputs": [],
      "stateMutability": "nonpayable",
      "type": "function"
    },
    {
      "inputs": [],
      "name": "treasuryAddress",
      "outputs": [
        {
          "internalType": "address payable",
          "name": "",
          "type": "address"
        }
      ],
      "stateMutability": "view",
      "type": "function"
    },
    {
      "inputs": [
        {
          "internalType": "address",
          "name": "newImplementation",
          "type": "address"
        }
      ],
      "name": "upgradeTo",
      "outputs": [],
      "stateMutability": "nonpayable",
      "type": "function"
    },
    {
      "inputs": [
        {
          "internalType": "address",
          "name": "newImplementation",
          "type": "address"
        },
        {
          "internalType": "bytes",
          "name": "data",
          "type": "bytes"
        }
      ],
      "name": "upgradeToAndCall",
      "outputs": [],
      "stateMutability": "payable",
      "type": "function"
    },
    {
      "inputs": [],
      "name": "usdcToken",
      "outputs": [
        {
          "internalType": "contract IERC20",
          "name": "",
          "type": "address"
        }
      ],
      "stateMutability": "view",
      "type": "function"
    }
  ],
  "transactionHash": "0x4dde585a34dd3052868e82f4eb3250e78c0832e13cda76cb9fc869cf520df935",
  "args": [],
  "numDeployments": 1,
  "solcInputHash": "365780923e9b79e059d720197ac56e75",
  "bytecode": "0x60a0604052306080523480156200001557600080fd5b506200002062000026565b620000e7565b600054610100900460ff1615620000935760405162461bcd60e51b815260206004820152602760248201527f496e697469616c697a61626c653a20636f6e747261637420697320696e697469604482015266616c697a696e6760c81b606482015260840160405180910390fd5b60005460ff90811614620000e5576000805460ff191660ff9081179091556040519081527f7f26b83ff96e1f2b6a682f133852f6798a09c465da95921460cefb38474024989060200160405180910390a15b565b608051612bab6200011f60003960008181610878015281816108b801528181610972015281816109b20152610a450152612bab6000f3fe6080604052600436106101c25760003560e01c80636605bfda116100f7578063a22cb46511610095578063d0def52111610064578063d0def52114610504578063e985e9c514610524578063eddd0d9c1461056d578063f2fde38b1461058d57600080fd5b8063a22cb46514610483578063b88d4fde146104a3578063c5f956af146104c3578063c87b56dd146104e457600080fd5b8063715018a6116100d1578063715018a61461042557806375794a3c1461043a5780638da5cb5b1461045057806395d89b411461046e57600080fd5b80636605bfda146103c55780636ef7626c146103e557806370a082311461040557600080fd5b80632a55205a116101645780634f1ef2861161013e5780634f1ef2861461035d57806352d1902d146103705780635575ad3a146103855780636352211e146103a557600080fd5b80632a55205a146102de5780633659cfe61461031d57806342842e0e1461033d57600080fd5b8063095ea7b3116101a0578063095ea7b31461025657806311eac8551461027857806313966db51461029957806323b872dd146102be57600080fd5b806301ffc9a7146101c757806306fdde03146101fc578063081812fc1461021e575b600080fd5b3480156101d357600080fd5b506101e76101e2366004612312565b6105ad565b60405190151581526020015b60405180910390f35b34801561020857600080fd5b506102116105be565b6040516101f3919061237f565b34801561022a57600080fd5b5061023e610239366004612392565b610650565b6040516001600160a01b0390911681526020016101f3565b34801561026257600080fd5b506102766102713660046123c0565b610677565b005b34801561028457600080fd5b506101945461023e906001600160a01b031681565b3480156102a557600080fd5b506102b06101925481565b6040519081526020016101f3565b3480156102ca57600080fd5b506102766102d93660046123ec565b610791565b3480156102ea57600080fd5b506102fe6102f936600461242d565b6107c2565b604080516001600160a01b0390931683526020830191909152016101f3565b34801561032957600080fd5b5061027661033836600461244f565b61086e565b34801561034957600080fd5b506102766103583660046123ec565b61094d565b61027661036b36600461250f565b610968565b34801561037c57600080fd5b506102b0610a38565b34801561039157600080fd5b506102766103a036600461244f565b610aeb565b3480156103b157600080fd5b5061023e6103c0366004612392565b610b9f565b3480156103d157600080fd5b506102766103e036600461244f565b610bff565b3480156103f157600080fd5b5061027661040036600461255f565b610cac565b34801561041157600080fd5b506102b061042036600461244f565b610e37565b34801561043157600080fd5b50610276610ebd565b34801561044657600080fd5b50610191546102b0565b34801561045c57600080fd5b5060fb546001600160a01b031661023e565b34801561047a57600080fd5b50610211610ed1565b34801561048f57600080fd5b5061027661049e366004612613565b610ee0565b3480156104af57600080fd5b506102766104be36600461264c565b610eeb565b3480156104cf57600080fd5b506101935461023e906001600160a01b031681565b3480156104f057600080fd5b506102116104ff366004612392565b610f23565b34801561051057600080fd5b506102b061051f36600461250f565b610f93565b34801561053057600080fd5b506101e761053f3660046126b8565b6001600160a01b039182166000908152606a6020908152604080832093909416825291909152205460ff1690565b34801561057957600080fd5b50610276610588366004612392565b611123565b34801561059957600080fd5b506102766105a836600461244f565b611161565b60006105b8826111d7565b92915050565b6060606580546105cd906126e6565b80601f01602080910402602001604051908101604052809291908181526020018280546105f9906126e6565b80156106465780601f1061061b57610100808354040283529160200191610646565b820191906000526020600020905b81548152906001019060200180831161062957829003601f168201915b5050505050905090565b600061065b826111fc565b506000908152606960205260409020546001600160a01b031690565b600061068282610b9f565b9050806001600160a01b0316836001600160a01b0316036106f45760405162461bcd60e51b815260206004820152602160248201527f4552433732313a20617070726f76616c20746f2063757272656e74206f776e656044820152603960f91b60648201526084015b60405180910390fd5b336001600160a01b03821614806107105750610710813361053f565b6107825760405162461bcd60e51b815260206004820152603d60248201527f4552433732313a20617070726f76652063616c6c6572206973206e6f7420746f60448201527f6b656e206f776e6572206f7220617070726f76656420666f7220616c6c00000060648201526084016106eb565b61078c838361125b565b505050565b61079b33826112c9565b6107b75760405162461bcd60e51b81526004016106eb90612720565b61078c838383611348565b600082815260ca602090815260408083208151808301909252546001600160a01b038116808352600160a01b9091046001600160601b031692820192909252829161083757506040805180820190915260c9546001600160a01b0381168252600160a01b90046001600160601b031660208201525b602081015160009061271090610856906001600160601b031687612783565b610860919061279a565b915196919550909350505050565b6001600160a01b037f00000000000000000000000000000000000000000000000000000000000000001630036108b65760405162461bcd60e51b81526004016106eb906127bc565b7f00000000000000000000000000000000000000000000000000000000000000006001600160a01b03166108ff600080516020612b2f833981519152546001600160a01b031690565b6001600160a01b0316146109255760405162461bcd60e51b81526004016106eb90612808565b61092e816114ac565b6040805160008082526020820190925261094a918391906114b4565b50565b61078c83838360405180602001604052806000815250610eeb565b6001600160a01b037f00000000000000000000000000000000000000000000000000000000000000001630036109b05760405162461bcd60e51b81526004016106eb906127bc565b7f00000000000000000000000000000000000000000000000000000000000000006001600160a01b03166109f9600080516020612b2f833981519152546001600160a01b031690565b6001600160a01b031614610a1f5760405162461bcd60e51b81526004016106eb90612808565b610a28826114ac565b610a34828260016114b4565b5050565b6000306001600160a01b037f00000000000000000000000000000000000000000000000000000000000000001614610ad85760405162461bcd60e51b815260206004820152603860248201527f555550535570677261646561626c653a206d757374206e6f742062652063616c60448201527f6c6564207468726f7567682064656c656761746563616c6c000000000000000060648201526084016106eb565b50600080516020612b2f83398151915290565b610af361161f565b6001600160a01b038116610b495760405162461bcd60e51b815260206004820152601d60248201527f496e76616c6964205553444320636f6e7472616374206164647265737300000060448201526064016106eb565b61019480546001600160a01b0319166001600160a01b0383169081179091556040519081527fdab30f4f09fe9a569ccb42f91924b4f1a21b244a95a4e0c88c3f69949078b9b8906020015b60405180910390a150565b6000818152606760205260408120546001600160a01b0316806105b85760405162461bcd60e51b8152602060048201526018602482015277115490cdcc8c4e881a5b9d985b1a59081d1bdad95b88125160421b60448201526064016106eb565b610c0761161f565b6001600160a01b038116610c5d5760405162461bcd60e51b815260206004820152601860248201527f496e76616c69642074726561737572792061646472657373000000000000000060448201526064016106eb565b61019380546001600160a01b0319166001600160a01b0383169081179091556040519081527fb6a5e89655cf506139085f051af608195ed056f8dc550b180a1c38d401e2b6c490602001610b94565b600054610100900460ff1615808015610ccc5750600054600160ff909116105b80610ce65750303b158015610ce6575060005460ff166001145b610d495760405162461bcd60e51b815260206004820152602e60248201527f496e697469616c697a61626c653a20636f6e747261637420697320616c72656160448201526d191e481a5b9a5d1a585b1a5e995960921b60648201526084016106eb565b6000805460ff191660011790558015610d6c576000805461ff0019166101001790555b610d768787611679565b610d7e6116aa565b610d866116aa565b610d8e6116d1565b610d966116aa565b61019285905560016101915561019380546001600160a01b038086166001600160a01b031992831617909255610194805492851692909116919091179055610ddf8460fa611700565b610de884611161565b8015610e2e576000805461ff0019169055604051600181527f7f26b83ff96e1f2b6a682f133852f6798a09c465da95921460cefb38474024989060200160405180910390a15b50505050505050565b60006001600160a01b038216610ea15760405162461bcd60e51b815260206004820152602960248201527f4552433732313a2061646472657373207a65726f206973206e6f7420612076616044820152683634b21037bbb732b960b91b60648201526084016106eb565b506001600160a01b031660009081526068602052604090205490565b610ec561161f565b610ecf60006117fd565b565b6060606680546105cd906126e6565b610a3433838361184f565b610ef533836112c9565b610f115760405162461bcd60e51b81526004016106eb90612720565b610f1d8484848461191d565b50505050565b6000818152606760205260409020546060906001600160a01b0316610f8a5760405162461bcd60e51b815260206004820152601f60248201527f55524920717565727920666f72206e6f6e6578697374656e7420746f6b656e0060448201526064016106eb565b6105b882611950565b600080825111610fe55760405162461bcd60e51b815260206004820152601c60248201527f4d65746164617461205552492063616e6e6f7420626520656d7074790000000060448201526064016106eb565b6101945461019354610192546040516323b872dd60e01b81523360048201526001600160a01b03928316602482015260448101919091529116906323b872dd906064016020604051808303816000875af1158015611047573d6000803e3d6000fd5b505050506040513d601f19601f8201168201806040525081019061106b9190612854565b6110ae5760405162461bcd60e51b81526020600482015260146024820152731554d110c81d1c985b9cd9995c8819985a5b195960621b60448201526064016106eb565b6101918054600091826110c083612871565b9190505590506110d08482611a58565b6110da8184611a72565b80846001600160a01b03167fd35bb95e09c04b219e35047ce7b7b300e3384264ef84a40456943dbc0fc17c1485604051611114919061237f565b60405180910390a39392505050565b61112b61161f565b6101928190556040518181527f38fbb1c8b109c430f0c030e7ed076cf5611a307773a4e8e365601e8f8bceaec690602001610b94565b61116961161f565b6001600160a01b0381166111ce5760405162461bcd60e51b815260206004820152602660248201527f4f776e61626c653a206e6577206f776e657220697320746865207a65726f206160448201526564647265737360d01b60648201526084016106eb565b61094a816117fd565b60006001600160e01b0319821663152a902d60e11b14806105b857506105b882611b3d565b6000818152606760205260409020546001600160a01b031661094a5760405162461bcd60e51b8152602060048201526018602482015277115490cdcc8c4e881a5b9d985b1a59081d1bdad95b88125160421b60448201526064016106eb565b600081815260696020526040902080546001600160a01b0319166001600160a01b038416908117909155819061129082610b9f565b6001600160a01b03167f8c5be1e5ebec7d5bd14f71427d1e84f3dd0314c0f7b2291e5b200ac8c7c3b92560405160405180910390a45050565b6000806112d583610b9f565b9050806001600160a01b0316846001600160a01b0316148061131c57506001600160a01b038082166000908152606a602090815260408083209388168352929052205460ff165b806113405750836001600160a01b031661133584610650565b6001600160a01b0316145b949350505050565b826001600160a01b031661135b82610b9f565b6001600160a01b0316146113815760405162461bcd60e51b81526004016106eb9061288a565b6001600160a01b0382166113e35760405162461bcd60e51b8152602060048201526024808201527f4552433732313a207472616e7366657220746f20746865207a65726f206164646044820152637265737360e01b60648201526084016106eb565b826001600160a01b03166113f682610b9f565b6001600160a01b03161461141c5760405162461bcd60e51b81526004016106eb9061288a565b600081815260696020908152604080832080546001600160a01b03199081169091556001600160a01b0387811680865260688552838620805460001901905590871680865283862080546001019055868652606790945282852080549092168417909155905184937fddf252ad1be2c89b69c2b068fc378daa952ba7f163c4a11628f55a4df523b3ef91a4505050565b61094a61161f565b7f4910fdfa16fed3260ed0e7147f7cc6da11a60208b5b9406d12a635614ffd91435460ff16156114e75761078c83611b62565b826001600160a01b03166352d1902d6040518163ffffffff1660e01b8152600401602060405180830381865afa925050508015611541575060408051601f3d908101601f1916820190925261153e918101906128cf565b60015b6115a45760405162461bcd60e51b815260206004820152602e60248201527f45524331393637557067726164653a206e657720696d706c656d656e7461746960448201526d6f6e206973206e6f74205555505360901b60648201526084016106eb565b600080516020612b2f83398151915281146116135760405162461bcd60e51b815260206004820152602960248201527f45524331393637557067726164653a20756e737570706f727465642070726f786044820152681a58589b195555525160ba1b60648201526084016106eb565b5061078c838383611bfe565b60fb546001600160a01b03163314610ecf5760405162461bcd60e51b815260206004820181905260248201527f4f776e61626c653a2063616c6c6572206973206e6f7420746865206f776e657260448201526064016106eb565b600054610100900460ff166116a05760405162461bcd60e51b81526004016106eb906128e8565b610a348282611c23565b600054610100900460ff16610ecf5760405162461bcd60e51b81526004016106eb906128e8565b600054610100900460ff166116f85760405162461bcd60e51b81526004016106eb906128e8565b610ecf611c63565b6127106001600160601b038216111561176e5760405162461bcd60e51b815260206004820152602a60248201527f455243323938313a20726f79616c7479206665652077696c6c206578636565646044820152692073616c65507269636560b01b60648201526084016106eb565b6001600160a01b0382166117c45760405162461bcd60e51b815260206004820152601960248201527f455243323938313a20696e76616c69642072656365697665720000000000000060448201526064016106eb565b604080518082019091526001600160a01b039092168083526001600160601b039091166020909201829052600160a01b9091021760c955565b60fb80546001600160a01b038381166001600160a01b0319831681179093556040519116919082907f8be0079c531659141344cd1fd0a4f28419497f9722a3daafe3b4186f6b6457e090600090a35050565b816001600160a01b0316836001600160a01b0316036118b05760405162461bcd60e51b815260206004820152601960248201527f4552433732313a20617070726f766520746f2063616c6c65720000000000000060448201526064016106eb565b6001600160a01b038381166000818152606a6020908152604080832094871680845294825291829020805460ff191686151590811790915591519182527f17307eab39ab6107e8899845ad3d59bd9653f200f220920489ca2b5937696c31910160405180910390a3505050565b611928848484611348565b61193484848484611c93565b610f1d5760405162461bcd60e51b81526004016106eb90612933565b606061195b826111fc565b60008281526097602052604081208054611974906126e6565b80601f01602080910402602001604051908101604052809291908181526020018280546119a0906126e6565b80156119ed5780601f106119c2576101008083540402835291602001916119ed565b820191906000526020600020905b8154815290600101906020018083116119d057829003601f168201915b505050505090506000611a0b60408051602081019091526000815290565b90508051600003611a1d575092915050565b815115611a4f578082604051602001611a37929190612985565b60405160208183030381529060405292505050919050565b61134084611d94565b610a34828260405180602001604052806000815250611e08565b6000828152606760205260409020546001600160a01b0316611aed5760405162461bcd60e51b815260206004820152602e60248201527f45524337323155524953746f726167653a2055524920736574206f66206e6f6e60448201526d32bc34b9ba32b73a103a37b5b2b760911b60648201526084016106eb565b6000828152609760205260409020611b058282612a02565b506040518281527ff8e1a15aba9398e019f0b49df1a4fde98ee17ae345cb5f6b5e2c27f5033e8ce79060200160405180910390a15050565b60006001600160e01b03198216632483248360e11b14806105b857506105b882611e3b565b6001600160a01b0381163b611bcf5760405162461bcd60e51b815260206004820152602d60248201527f455243313936373a206e657720696d706c656d656e746174696f6e206973206e60448201526c1bdd08184818dbdb9d1c9858dd609a1b60648201526084016106eb565b600080516020612b2f83398151915280546001600160a01b0319166001600160a01b0392909216919091179055565b611c0783611e8b565b600082511180611c145750805b1561078c57610f1d8383611ecb565b600054610100900460ff16611c4a5760405162461bcd60e51b81526004016106eb906128e8565b6065611c568382612a02565b50606661078c8282612a02565b600054610100900460ff16611c8a5760405162461bcd60e51b81526004016106eb906128e8565b610ecf336117fd565b60006001600160a01b0384163b15611d8957604051630a85bd0160e11b81526001600160a01b0385169063150b7a0290611cd7903390899088908890600401612ac2565b6020604051808303816000875af1925050508015611d12575060408051601f3d908101601f19168201909252611d0f91810190612af5565b60015b611d6f573d808015611d40576040519150601f19603f3d011682016040523d82523d6000602084013e611d45565b606091505b508051600003611d675760405162461bcd60e51b81526004016106eb90612933565b805181602001fd5b6001600160e01b031916630a85bd0160e11b149050611340565b506001949350505050565b6060611d9f826111fc565b6000611db660408051602081019091526000815290565b90506000815111611dd65760405180602001604052806000815250611e01565b80611de084611ef0565b604051602001611df1929190612985565b6040516020818303038152906040525b9392505050565b611e128383611f83565b611e1f6000848484611c93565b61078c5760405162461bcd60e51b81526004016106eb90612933565b60006001600160e01b031982166380ac58cd60e01b1480611e6c57506001600160e01b03198216635b5e139f60e01b145b806105b857506301ffc9a760e01b6001600160e01b03198316146105b8565b611e9481611b62565b6040516001600160a01b038216907fbc7cd75a20ee27fd9adebab32041f755214dbc6bffa90cc0225b39da2e5c2d3b90600090a250565b6060611e018383604051806060016040528060278152602001612b4f6027913961210e565b60606000611efd83612186565b600101905060008167ffffffffffffffff811115611f1d57611f1d61246c565b6040519080825280601f01601f191660200182016040528015611f47576020820181803683370190505b5090508181016020015b600019016f181899199a1a9b1b9c1cb0b131b232b360811b600a86061a8153600a8504945084611f5157509392505050565b6001600160a01b038216611fd95760405162461bcd60e51b815260206004820181905260248201527f4552433732313a206d696e7420746f20746865207a65726f206164647265737360448201526064016106eb565b6000818152606760205260409020546001600160a01b03161561203e5760405162461bcd60e51b815260206004820152601c60248201527f4552433732313a20746f6b656e20616c7265616479206d696e7465640000000060448201526064016106eb565b6000818152606760205260409020546001600160a01b0316156120a35760405162461bcd60e51b815260206004820152601c60248201527f4552433732313a20746f6b656e20616c7265616479206d696e7465640000000060448201526064016106eb565b6001600160a01b038216600081815260686020908152604080832080546001019055848352606790915280822080546001600160a01b0319168417905551839291907fddf252ad1be2c89b69c2b068fc378daa952ba7f163c4a11628f55a4df523b3ef908290a45050565b6060600080856001600160a01b03168560405161212b9190612b12565b600060405180830381855af49150503d8060008114612166576040519150601f19603f3d011682016040523d82523d6000602084013e61216b565b606091505b509150915061217c8683838761225e565b9695505050505050565b60008072184f03e93ff9f4daa797ed6e38ed64bf6a1f0160401b83106121c55772184f03e93ff9f4daa797ed6e38ed64bf6a1f0160401b830492506040015b6d04ee2d6d415b85acef810000000083106121f1576d04ee2d6d415b85acef8100000000830492506020015b662386f26fc10000831061220f57662386f26fc10000830492506010015b6305f5e1008310612227576305f5e100830492506008015b612710831061223b57612710830492506004015b6064831061224d576064830492506002015b600a83106105b85760010192915050565b606083156122cd5782516000036122c6576001600160a01b0385163b6122c65760405162461bcd60e51b815260206004820152601d60248201527f416464726573733a2063616c6c20746f206e6f6e2d636f6e747261637400000060448201526064016106eb565b5081611340565b61134083838151156122e25781518083602001fd5b8060405162461bcd60e51b81526004016106eb919061237f565b6001600160e01b03198116811461094a57600080fd5b60006020828403121561232457600080fd5b8135611e01816122fc565b60005b8381101561234a578181015183820152602001612332565b50506000910152565b6000815180845261236b81602086016020860161232f565b601f01601f19169290920160200192915050565b602081526000611e016020830184612353565b6000602082840312156123a457600080fd5b5035919050565b6001600160a01b038116811461094a57600080fd5b600080604083850312156123d357600080fd5b82356123de816123ab565b946020939093013593505050565b60008060006060848603121561240157600080fd5b833561240c816123ab565b9250602084013561241c816123ab565b929592945050506040919091013590565b6000806040838503121561244057600080fd5b50508035926020909101359150565b60006020828403121561246157600080fd5b8135611e01816123ab565b634e487b7160e01b600052604160045260246000fd5b600082601f83011261249357600080fd5b813567ffffffffffffffff808211156124ae576124ae61246c565b604051601f8301601f19908116603f011681019082821181831017156124d6576124d661246c565b816040528381528660208588010111156124ef57600080fd5b836020870160208301376000602085830101528094505050505092915050565b6000806040838503121561252257600080fd5b823561252d816123ab565b9150602083013567ffffffffffffffff81111561254957600080fd5b61255585828601612482565b9150509250929050565b60008060008060008060c0878903121561257857600080fd5b863567ffffffffffffffff8082111561259057600080fd5b61259c8a838b01612482565b975060208901359150808211156125b257600080fd5b506125bf89828a01612482565b9550506040870135935060608701356125d7816123ab565b925060808701356125e7816123ab565b915060a08701356125f7816123ab565b809150509295509295509295565b801515811461094a57600080fd5b6000806040838503121561262657600080fd5b8235612631816123ab565b9150602083013561264181612605565b809150509250929050565b6000806000806080858703121561266257600080fd5b843561266d816123ab565b9350602085013561267d816123ab565b925060408501359150606085013567ffffffffffffffff8111156126a057600080fd5b6126ac87828801612482565b91505092959194509250565b600080604083850312156126cb57600080fd5b82356126d6816123ab565b91506020830135612641816123ab565b600181811c908216806126fa57607f821691505b60208210810361271a57634e487b7160e01b600052602260045260246000fd5b50919050565b6020808252602d908201527f4552433732313a2063616c6c6572206973206e6f7420746f6b656e206f776e6560408201526c1c881bdc88185c1c1c9bdd9959609a1b606082015260800190565b634e487b7160e01b600052601160045260246000fd5b80820281158282048414176105b8576105b861276d565b6000826127b757634e487b7160e01b600052601260045260246000fd5b500490565b6020808252602c908201527f46756e6374696f6e206d7573742062652063616c6c6564207468726f7567682060408201526b19195b1959d85d1958d85b1b60a21b606082015260800190565b6020808252602c908201527f46756e6374696f6e206d7573742062652063616c6c6564207468726f7567682060408201526b6163746976652070726f787960a01b606082015260800190565b60006020828403121561286657600080fd5b8151611e0181612605565b6000600182016128835761288361276d565b5060010190565b60208082526025908201527f4552433732313a207472616e736665722066726f6d20696e636f72726563742060408201526437bbb732b960d91b606082015260800190565b6000602082840312156128e157600080fd5b5051919050565b6020808252602b908201527f496e697469616c697a61626c653a20636f6e7472616374206973206e6f74206960408201526a6e697469616c697a696e6760a81b606082015260800190565b60208082526032908201527f4552433732313a207472616e7366657220746f206e6f6e20455243373231526560408201527131b2b4bb32b91034b6b83632b6b2b73a32b960711b606082015260800190565b6000835161299781846020880161232f565b8351908301906129ab81836020880161232f565b01949350505050565b601f82111561078c57600081815260208120601f850160051c810160208610156129db5750805b601f850160051c820191505b818110156129fa578281556001016129e7565b505050505050565b815167ffffffffffffffff811115612a1c57612a1c61246c565b612a3081612a2a84546126e6565b846129b4565b602080601f831160018114612a655760008415612a4d5750858301515b600019600386901b1c1916600185901b1785556129fa565b600085815260208120601f198616915b82811015612a9457888601518255948401946001909101908401612a75565b5085821015612ab25787850151600019600388901b60f8161c191681555b5050505050600190811b01905550565b6001600160a01b038581168252841660208201526040810183905260806060820181905260009061217c90830184612353565b600060208284031215612b0757600080fd5b8151611e01816122fc565b60008251612b2481846020870161232f565b919091019291505056fe360894a13ba1a3210667c828492db98dca3e2076cc3735a920a3ca505d382bbc416464726573733a206c6f772d6c6576656c2064656c65676174652063616c6c206661696c6564a26469706673582212208293c3f265aeb3d1fe58d6f38ae6d883f55cc6b5c67eee50236bafa09b980d8264736f6c63430008140033",
  "devdoc": {
    "details": "NFT contract for Zodiac Card Farcaster mini app on Base network",
    "events": {
      "AdminChanged(address,address)": {
        "details": "Emitted when the admin account has changed."
      },
      "Approval(address,address,uint256)": {
        "details": "Emitted when `owner` enables `approved` to manage the `tokenId` token."
      },
      "ApprovalForAll(address,address,bool)": {
        "details": "Emitted when `owner` enables or disables (`approved`) `operator` to manage all of its assets."
      },
      "BatchMetadataUpdate(uint256,uint256)": {
        "details": "This event emits when the metadata of a range of tokens is changed. So that the third-party platforms such as NFT market could timely update the images and related attributes of the NFTs."
      },
      "BeaconUpgraded(address)": {
        "details": "Emitted when the beacon is changed."
      },
      "Initialized(uint8)": {
        "details": "Triggered when the contract has been initialized or reinitialized."
      },
      "MetadataUpdate(uint256)": {
        "details": "This event emits when the metadata of a token is changed. So that the third-party platforms such as NFT market could timely update the images and related attributes of the NFT."
      },
      "Transfer(address,address,uint256)": {
        "details": "Emitted when `tokenId` token is transferred from `from` to `to`."
      },
      "Upgraded(address)": {
        "details": "Emitted when the implementation is upgraded."
      }
    },
    "kind": "dev",
    "methods": {
      "approve(address,uint256)": {
        "details": "See {IERC721-approve}."
      },
      "balanceOf(address)": {
        "details": "See {IERC721-balanceOf}."
      },
      "constructor": {
        "custom:oz-upgrades-unsafe-allow": "constructor"
      },
      "getApproved(uint256)": {
        "details": "See {IERC721-getApproved}."
      },
      "isApprovedForAll(address,address)": {
        "details": "See {IERC721-isApprovedForAll}."
      },
      "name()": {
        "details": "See {IERC721Metadata-name}."
      },
      "owner()": {
        "details": "Returns the address of the current owner."
      },
      "ownerOf(uint256)": {
        "details": "See {IERC721-ownerOf}."
      },
      "proxiableUUID()": {
        "details": "Implementation of the ERC1822 {proxiableUUID} function. This returns the storage slot used by the implementation. It is used to validate the implementation's compatibility when performing an upgrade. IMPORTANT: A proxy pointing at a proxiable contract should not be considered proxiable itself, because this risks bricking a proxy that upgrades to it, by delegating to itself until out of gas. Thus it is critical that this function revert if invoked through a proxy. This is guaranteed by the `notDelegated` modifier."
      },
      "renounceOwnership()": {
        "details": "Leaves the contract without owner. It will not be possible to call `onlyOwner` functions. Can only be called by the current owner. NOTE: Renouncing ownership will leave the contract without an owner, thereby disabling any functionality that is only available to the owner."
      },
      "royaltyInfo(uint256,uint256)": {
        "details": "Returns how much royalty is owed and to whom, based on a sale price that may be denominated in any unit of exchange. The royalty amount is denominated and should be paid in that same unit of exchange."
      },
      "safeTransferFrom(address,address,uint256)": {
        "details": "See {IERC721-safeTransferFrom}."
      },
      "safeTransferFrom(address,address,uint256,bytes)": {
        "details": "See {IERC721-safeTransferFrom}."
      },
      "setApprovalForAll(address,bool)": {
        "details": "See {IERC721-setApprovalForAll}."
      },
      "symbol()": {
        "details": "See {IERC721Metadata-symbol}."
      },
      "transferFrom(address,address,uint256)": {
        "details": "See {IERC721-transferFrom}."
      },
      "transferOwnership(address)": {
        "details": "Transfers ownership of the contract to a new account (`newOwner`). Can only be called by the current owner."
      },
      "upgradeTo(address)": {
        "custom:oz-upgrades-unsafe-allow-reachable": "delegatecall",
        "details": "Upgrade the implementation of the proxy to `newImplementation`. Calls {_authorizeUpgrade}. Emits an {Upgraded} event."
      },
      "upgradeToAndCall(address,bytes)": {
        "custom:oz-upgrades-unsafe-allow-reachable": "delegatecall",
        "details": "Upgrade the implementation of the proxy to `newImplementation`, and subsequently execute the function call encoded in `data`. Calls {_authorizeUpgrade}. Emits an {Upgraded} event."
      }
    },
    "title": "ZodiacNFT",
    "version": 1
  },
  "userdoc": {
    "kind": "user",
    "methods": {},
    "version": 1
  },
  "storageLayout": {
    "storage": [
      {
        "astId": 550,
        "contract": "contracts/ZodiacNFT.sol:ZodiacNFT",
        "label": "_initialized",
        "offset": 0,
        "slot": "0",
        "type": "t_uint8"
      },
      {
        "astId": 553,
        "contract": "contracts/ZodiacNFT.sol:ZodiacNFT",
        "label": "_initializing",
        "offset": 1,
        "slot": "0",
        "type": "t_bool"
      },
      {
        "astId": 2726,
        "contract": "contracts/ZodiacNFT.sol:ZodiacNFT",
        "label": "__gap",
        "offset": 0,
        "slot": "1",
        "type": "t_array(t_uint256)50_storage"
      },
      {
        "astId": 3109,
        "contract": "contracts/ZodiacNFT.sol:ZodiacNFT",
        "label": "__gap",
        "offset": 0,
        "slot": "51",
        "type": "t_array(t_uint256)50_storage"
      },
      {
        "astId": 877,
        "contract": "contracts/ZodiacNFT.sol:ZodiacNFT",
        "label": "_name",
        "offset": 0,
        "slot": "101",
        "type": "t_string_storage"
      },
      {
        "astId": 879,
        "contract": "contracts/ZodiacNFT.sol:ZodiacNFT",
        "label": "_symbol",
        "offset": 0,
        "slot": "102",
        "type": "t_string_storage"
      },
      {
        "astId": 883,
        "contract": "contracts/ZodiacNFT.sol:ZodiacNFT",
        "label": "_owners",
        "offset": 0,
        "slot": "103",
        "type": "t_mapping(t_uint256,t_address)"
      },
      {
        "astId": 887,
        "contract": "contracts/ZodiacNFT.sol:ZodiacNFT",
        "label": "_balances",
        "offset": 0,
        "slot": "104",
        "type": "t_mapping(t_address,t_uint256)"
      },
      {
        "astId": 891,
        "contract": "contracts/ZodiacNFT.sol:ZodiacNFT",
        "label": "_tokenApprovals",
        "offset": 0,
        "slot": "105",
        "type": "t_mapping(t_uint256,t_address)"
      },
      {
        "astId": 897,
        "contract": "contracts/ZodiacNFT.sol:ZodiacNFT",
        "label": "_operatorApprovals",
        "offset": 0,
        "slot": "106",
        "type": "t_mapping(t_address,t_mapping(t_address,t_bool))"
      },
      {
        "astId": 1799,
        "contract": "contracts/ZodiacNFT.sol:ZodiacNFT",
        "label": "__gap",
        "offset": 0,
        "slot": "107",
        "type": "t_array(t_uint256)44_storage"
      },
      {
        "astId": 1965,
        "contract": "contracts/ZodiacNFT.sol:ZodiacNFT",
        "label": "_tokenURIs",
        "offset": 0,
        "slot": "151",
        "type": "t_mapping(t_uint256,t_string_storage)"
      },
      {
        "astId": 2109,
        "contract": "contracts/ZodiacNFT.sol:ZodiacNFT",
        "label": "__gap",
        "offset": 0,
        "slot": "152",
        "type": "t_array(t_uint256)49_storage"
      },
      {
        "astId": 2169,
        "contract": "contracts/ZodiacNFT.sol:ZodiacNFT",
        "label": "_defaultRoyaltyInfo",
        "offset": 0,
        "slot": "201",
        "type": "t_struct(RoyaltyInfo)2166_storage"
      },
      {
        "astId": 2174,
        "contract": "contracts/ZodiacNFT.sol:ZodiacNFT",
        "label": "_tokenRoyaltyInfo",
        "offset": 0,
        "slot": "202",
        "type": "t_mapping(t_uint256,t_struct(RoyaltyInfo)2166_storage)"
      },
      {
        "astId": 2354,
        "contract": "contracts/ZodiacNFT.sol:ZodiacNFT",
        "label": "__gap",
        "offset": 0,
        "slot": "203",
        "type": "t_array(t_uint256)48_storage"
      },
      {
        "astId": 10,
        "contract": "contracts/ZodiacNFT.sol:ZodiacNFT",
        "label": "_owner",
        "offset": 0,
        "slot": "251",
        "type": "t_address"
      },
      {
        "astId": 130,
        "contract": "contracts/ZodiacNFT.sol:ZodiacNFT",
        "label": "__gap",
        "offset": 0,
        "slot": "252",
        "type": "t_array(t_uint256)49_storage"
      },
      {
        "astId": 532,
        "contract": "contracts/ZodiacNFT.sol:ZodiacNFT",
        "label": "__gap",
        "offset": 0,
        "slot": "301",
        "type": "t_array(t_uint256)50_storage"
      },
      {
        "astId": 847,
        "contract": "contracts/ZodiacNFT.sol:ZodiacNFT",
        "label": "__gap",
        "offset": 0,
        "slot": "351",
        "type": "t_array(t_uint256)50_storage"
      },
      {
        "astId": 5399,
        "contract": "contracts/ZodiacNFT.sol:ZodiacNFT",
        "label": "_nextTokenId",
        "offset": 0,
        "slot": "401",
        "type": "t_uint256"
      },
      {
        "astId": 5401,
        "contract": "contracts/ZodiacNFT.sol:ZodiacNFT",
        "label": "mintFee",
        "offset": 0,
        "slot": "402",
        "type": "t_uint256"
      },
      {
        "astId": 5403,
        "contract": "contracts/ZodiacNFT.sol:ZodiacNFT",
        "label": "treasuryAddress",
        "offset": 0,
        "slot": "403",
        "type": "t_address_payable"
      },
      {
        "astId": 5406,
        "contract": "contracts/ZodiacNFT.sol:ZodiacNFT",
        "label": "usdcToken",
        "offset": 0,
        "slot": "404",
        "type": "t_contract(IERC20)4171"
      }
    ],
    "types": {
      "t_address": {
        "encoding": "inplace",
        "label": "address",
        "numberOfBytes": "20"
      },
      "t_address_payable": {
        "encoding": "inplace",
        "label": "address payable",
        "numberOfBytes": "20"
      },
      "t_array(t_uint256)44_storage": {
        "base": "t_uint256",
        "encoding": "inplace",
        "label": "uint256[44]",
        "numberOfBytes": "1408"
      },
      "t_array(t_uint256)48_storage": {
        "base": "t_uint256",
        "encoding": "inplace",
        "label": "uint256[48]",
        "numberOfBytes": "1536"
      },
      "t_array(t_uint256)49_storage": {
        "base": "t_uint256",
        "encoding": "inplace",
        "label": "uint256[49]",
        "numberOfBytes": "1568"
      },
      "t_array(t_uint256)50_storage": {
        "base": "t_uint256",
        "encoding": "inplace",
        "label": "uint256[50]",
        "numberOfBytes": "1600"
      },
      "t_bool": {
        "encoding": "inplace",
        "label": "bool",
        "numberOfBytes": "1"
      },
      "t_contract(IERC20)4171": {
        "encoding": "inplace",
        "label": "contract IERC20",
        "numberOfBytes": "20"
      },
      "t_mapping(t_address,t_bool)": {
        "encoding": "mapping",
        "key": "t_address",
        "label": "mapping(address => bool)",
        "numberOfBytes": "32",
        "value": "t_bool"
      },
      "t_mapping(t_address,t_mapping(t_address,t_bool))": {
        "encoding": "mapping",
        "key": "t_address",
        "label": "mapping(address => mapping(address => bool))",
        "numberOfBytes": "32",
        "value": "t_mapping(t_address,t_bool)"
      },
      "t_mapping(t_address,t_uint256)": {
        "encoding": "mapping",
        "key": "t_address",
        "label": "mapping(address => uint256)",
        "numberOfBytes": "32",
        "value": "t_uint256"
      },
      "t_mapping(t_uint256,t_address)": {
        "encoding": "mapping",
        "key": "t_uint256",
        "label": "mapping(uint256 => address)",
        "numberOfBytes": "32",
        "value": "t_address"
      },
      "t_mapping(t_uint256,t_string_storage)": {
        "encoding": "mapping",
        "key": "t_uint256",
        "label": "mapping(uint256 => string)",
        "numberOfBytes": "32",
        "value": "t_string_storage"
      },
      "t_mapping(t_uint256,t_struct(RoyaltyInfo)2166_storage)": {
        "encoding": "mapping",
        "key": "t_uint256",
        "label": "mapping(uint256 => struct ERC2981Upgradeable.RoyaltyInfo)",
        "numberOfBytes": "32",
        "value": "t_struct(RoyaltyInfo)2166_storage"
      },
      "t_string_storage": {
        "encoding": "bytes",
        "label": "string",
        "numberOfBytes": "32"
      },
      "t_struct(RoyaltyInfo)2166_storage": {
        "encoding": "inplace",
        "label": "struct ERC2981Upgradeable.RoyaltyInfo",
        "members": [
          {
            "astId": 2163,
            "contract": "contracts/ZodiacNFT.sol:ZodiacNFT",
            "label": "receiver",
            "offset": 0,
            "slot": "0",
            "type": "t_address"
          },
          {
            "astId": 2165,
            "contract": "contracts/ZodiacNFT.sol:ZodiacNFT",
            "label": "royaltyFraction",
            "offset": 20,
            "slot": "0",
            "type": "t_uint96"
          }
        ],
        "numberOfBytes": "32"
      },
      "t_uint256": {
        "encoding": "inplace",
        "label": "uint256",
        "numberOfBytes": "32"
      },
      "t_uint8": {
        "encoding": "inplace",
        "label": "uint8",
        "numberOfBytes": "1"
      },
      "t_uint96": {
        "encoding": "inplace",
        "label": "uint96",
        "numberOfBytes": "12"
      }
    }
  }
}